{
  "_format": "hh-sol-artifact-1",
  "contractName": "Maxima",
  "sourceName": "contracts/Maxima.sol",
  "abi": [
    {
      "inputs": [],
      "stateMutability": "nonpayable",
      "type": "constructor"
    },
    {
      "anonymous": false,
      "inputs": [
        {
          "indexed": true,
          "internalType": "address",
          "name": "owner",
          "type": "address"
        },
        {
          "indexed": true,
          "internalType": "address",
          "name": "approved",
          "type": "address"
        },
        {
          "indexed": true,
          "internalType": "uint256",
          "name": "tokenId",
          "type": "uint256"
        }
      ],
      "name": "Approval",
      "type": "event"
    },
    {
      "anonymous": false,
      "inputs": [
        {
          "indexed": true,
          "internalType": "address",
          "name": "owner",
          "type": "address"
        },
        {
          "indexed": true,
          "internalType": "address",
          "name": "operator",
          "type": "address"
        },
        {
          "indexed": false,
          "internalType": "bool",
          "name": "approved",
          "type": "bool"
        }
      ],
      "name": "ApprovalForAll",
      "type": "event"
    },
    {
      "anonymous": false,
      "inputs": [
        {
          "indexed": false,
          "internalType": "address",
          "name": "sender",
          "type": "address"
        },
        {
          "indexed": false,
          "internalType": "uint256",
          "name": "tokenId",
          "type": "uint256"
        }
      ],
      "name": "NewWordleNFTMinted",
      "type": "event"
    },
    {
      "anonymous": false,
      "inputs": [
        {
          "indexed": true,
          "internalType": "address",
          "name": "previousOwner",
          "type": "address"
        },
        {
          "indexed": true,
          "internalType": "address",
          "name": "newOwner",
          "type": "address"
        }
      ],
      "name": "OwnershipTransferred",
      "type": "event"
    },
    {
      "anonymous": false,
      "inputs": [
        {
          "indexed": true,
          "internalType": "address",
          "name": "from",
          "type": "address"
        },
        {
          "indexed": true,
          "internalType": "address",
          "name": "to",
          "type": "address"
        },
        {
          "indexed": true,
          "internalType": "uint256",
          "name": "tokenId",
          "type": "uint256"
        }
      ],
      "name": "Transfer",
      "type": "event"
    },
    {
      "inputs": [
        {
          "internalType": "address",
          "name": "to",
          "type": "address"
        },
        {
          "internalType": "uint256",
          "name": "tokenId",
          "type": "uint256"
        }
      ],
      "name": "approve",
      "outputs": [],
      "stateMutability": "nonpayable",
      "type": "function"
    },
    {
      "inputs": [
        {
          "internalType": "address",
          "name": "owner",
          "type": "address"
        }
      ],
      "name": "balanceOf",
      "outputs": [
        {
          "internalType": "uint256",
          "name": "",
          "type": "uint256"
        }
      ],
      "stateMutability": "view",
      "type": "function"
    },
    {
      "inputs": [
        {
          "internalType": "uint256",
          "name": "tokenId",
          "type": "uint256"
        }
      ],
      "name": "getApproved",
      "outputs": [
        {
          "internalType": "address",
          "name": "",
          "type": "address"
        }
      ],
      "stateMutability": "view",
      "type": "function"
    },
    {
      "inputs": [
        {
          "internalType": "address",
          "name": "owner",
          "type": "address"
        },
        {
          "internalType": "address",
          "name": "operator",
          "type": "address"
        }
      ],
      "name": "isApprovedForAll",
      "outputs": [
        {
          "internalType": "bool",
          "name": "",
          "type": "bool"
        }
      ],
      "stateMutability": "view",
      "type": "function"
    },
    {
      "inputs": [
        {
          "internalType": "address payable",
          "name": "_to",
          "type": "address"
        },
        {
          "internalType": "string",
          "name": "metadataURI",
          "type": "string"
        }
      ],
      "name": "mintAndDonate",
      "outputs": [
        {
          "internalType": "uint256",
          "name": "",
          "type": "uint256"
        }
      ],
      "stateMutability": "payable",
      "type": "function"
    },
    {
      "inputs": [],
      "name": "name",
      "outputs": [
        {
          "internalType": "string",
          "name": "",
          "type": "string"
        }
      ],
      "stateMutability": "view",
      "type": "function"
    },
    {
      "inputs": [],
      "name": "owner",
      "outputs": [
        {
          "internalType": "address",
          "name": "",
          "type": "address"
        }
      ],
      "stateMutability": "view",
      "type": "function"
    },
    {
      "inputs": [
        {
          "internalType": "uint256",
          "name": "tokenId",
          "type": "uint256"
        }
      ],
      "name": "ownerOf",
      "outputs": [
        {
          "internalType": "address",
          "name": "",
          "type": "address"
        }
      ],
      "stateMutability": "view",
      "type": "function"
    },
    {
      "inputs": [],
      "name": "renounceOwnership",
      "outputs": [],
      "stateMutability": "nonpayable",
      "type": "function"
    },
    {
      "inputs": [
        {
          "internalType": "address",
          "name": "from",
          "type": "address"
        },
        {
          "internalType": "address",
          "name": "to",
          "type": "address"
        },
        {
          "internalType": "uint256",
          "name": "tokenId",
          "type": "uint256"
        }
      ],
      "name": "safeTransferFrom",
      "outputs": [],
      "stateMutability": "nonpayable",
      "type": "function"
    },
    {
      "inputs": [
        {
          "internalType": "address",
          "name": "from",
          "type": "address"
        },
        {
          "internalType": "address",
          "name": "to",
          "type": "address"
        },
        {
          "internalType": "uint256",
          "name": "tokenId",
          "type": "uint256"
        },
        {
          "internalType": "bytes",
          "name": "_data",
          "type": "bytes"
        }
      ],
      "name": "safeTransferFrom",
      "outputs": [],
      "stateMutability": "nonpayable",
      "type": "function"
    },
    {
      "inputs": [
        {
          "internalType": "address",
          "name": "operator",
          "type": "address"
        },
        {
          "internalType": "bool",
          "name": "approved",
          "type": "bool"
        }
      ],
      "name": "setApprovalForAll",
      "outputs": [],
      "stateMutability": "nonpayable",
      "type": "function"
    },
    {
      "inputs": [
        {
          "internalType": "bytes4",
          "name": "interfaceId",
          "type": "bytes4"
        }
      ],
      "name": "supportsInterface",
      "outputs": [
        {
          "internalType": "bool",
          "name": "",
          "type": "bool"
        }
      ],
      "stateMutability": "view",
      "type": "function"
    },
    {
      "inputs": [],
      "name": "symbol",
      "outputs": [
        {
          "internalType": "string",
          "name": "",
          "type": "string"
        }
      ],
      "stateMutability": "view",
      "type": "function"
    },
    {
      "inputs": [
        {
          "internalType": "uint256",
          "name": "tokenId",
          "type": "uint256"
        }
      ],
      "name": "tokenURI",
      "outputs": [
        {
          "internalType": "string",
          "name": "",
          "type": "string"
        }
      ],
      "stateMutability": "view",
      "type": "function"
    },
    {
      "inputs": [
        {
          "internalType": "address",
          "name": "from",
          "type": "address"
        },
        {
          "internalType": "address",
          "name": "to",
          "type": "address"
        },
        {
          "internalType": "uint256",
          "name": "tokenId",
          "type": "uint256"
        }
      ],
      "name": "transferFrom",
      "outputs": [],
      "stateMutability": "nonpayable",
      "type": "function"
    },
    {
      "inputs": [
        {
          "internalType": "address",
          "name": "newOwner",
          "type": "address"
        }
      ],
      "name": "transferOwnership",
      "outputs": [],
      "stateMutability": "nonpayable",
      "type": "function"
    }
  ],
  "bytecode": "0x60806040523480156200001157600080fd5b506040518060400160405280600981526020017f576f72646c654e465400000000000000000000000000000000000000000000008152506040518060400160405280600681526020017f4d4158494d410000000000000000000000000000000000000000000000000000815250816000908051906020019062000096929190620001a6565b508060019080519060200190620000af929190620001a6565b505050620000d2620000c6620000d860201b60201c565b620000e060201b60201c565b620002bb565b600033905090565b6000600760009054906101000a900473ffffffffffffffffffffffffffffffffffffffff16905081600760006101000a81548173ffffffffffffffffffffffffffffffffffffffff021916908373ffffffffffffffffffffffffffffffffffffffff1602179055508173ffffffffffffffffffffffffffffffffffffffff168173ffffffffffffffffffffffffffffffffffffffff167f8be0079c531659141344cd1fd0a4f28419497f9722a3daafe3b4186f6b6457e060405160405180910390a35050565b828054620001b49062000256565b90600052602060002090601f016020900481019282620001d8576000855562000224565b82601f10620001f357805160ff191683800117855562000224565b8280016001018555821562000224579182015b828111156200022357825182559160200191906001019062000206565b5b50905062000233919062000237565b5090565b5b808211156200025257600081600090555060010162000238565b5090565b600060028204905060018216806200026f57607f821691505b602082108114156200028657620002856200028c565b5b50919050565b7f4e487b7100000000000000000000000000000000000000000000000000000000600052602260045260246000fd5b61329480620002cb6000396000f3fe6080604052600436106100fe5760003560e01c8063715018a611610095578063b75d3d0d11610064578063b75d3d0d14610333578063b88d4fde14610363578063c87b56dd1461038c578063e985e9c5146103c9578063f2fde38b14610406576100fe565b8063715018a61461029d5780638da5cb5b146102b457806395d89b41146102df578063a22cb4651461030a576100fe565b806323b872dd116100d157806323b872dd146101d157806342842e0e146101fa5780636352211e1461022357806370a0823114610260576100fe565b806301ffc9a71461010357806306fdde0314610140578063081812fc1461016b578063095ea7b3146101a8575b600080fd5b34801561010f57600080fd5b5061012a60048036038101906101259190612142565b61042f565b60405161013791906125d4565b60405180910390f35b34801561014c57600080fd5b50610155610511565b60405161016291906125ef565b60405180910390f35b34801561017757600080fd5b50610192600480360381019061018d9190612194565b6105a3565b60405161019f919061256d565b60405180910390f35b3480156101b457600080fd5b506101cf60048036038101906101ca9190612106565b610628565b005b3480156101dd57600080fd5b506101f860048036038101906101f39190612000565b610740565b005b34801561020657600080fd5b50610221600480360381019061021c9190612000565b6107a0565b005b34801561022f57600080fd5b5061024a60048036038101906102459190612194565b6107c0565b604051610257919061256d565b60405180910390f35b34801561026c57600080fd5b5061028760048036038101906102829190611f47565b610872565b6040516102949190612891565b60405180910390f35b3480156102a957600080fd5b506102b261092a565b005b3480156102c057600080fd5b506102c96109b2565b6040516102d6919061256d565b60405180910390f35b3480156102eb57600080fd5b506102f46109dc565b60405161030191906125ef565b60405180910390f35b34801561031657600080fd5b50610331600480360381019061032c91906120ca565b610a6e565b005b61034d60048036038101906103489190611f70565b610a84565b60405161035a9190612891565b60405180910390f35b34801561036f57600080fd5b5061038a6004803603810190610385919061204f565b610b7f565b005b34801561039857600080fd5b506103b360048036038101906103ae9190612194565b610be1565b6040516103c091906125ef565b60405180910390f35b3480156103d557600080fd5b506103f060048036038101906103eb9190611fc4565b610bf3565b6040516103fd91906125d4565b60405180910390f35b34801561041257600080fd5b5061042d60048036038101906104289190611f47565b610c87565b005b60007f80ac58cd000000000000000000000000000000000000000000000000000000007bffffffffffffffffffffffffffffffffffffffffffffffffffffffff1916827bffffffffffffffffffffffffffffffffffffffffffffffffffffffff191614806104fa57507f5b5e139f000000000000000000000000000000000000000000000000000000007bffffffffffffffffffffffffffffffffffffffffffffffffffffffff1916827bffffffffffffffffffffffffffffffffffffffffffffffffffffffff1916145b8061050a575061050982610d7f565b5b9050919050565b60606000805461052090612af9565b80601f016020809104026020016040519081016040528092919081815260200182805461054c90612af9565b80156105995780601f1061056e57610100808354040283529160200191610599565b820191906000526020600020905b81548152906001019060200180831161057c57829003601f168201915b5050505050905090565b60006105ae82610de9565b6105ed576040517f08c379a00000000000000000000000000000000000000000000000000000000081526004016105e4906127d1565b60405180910390fd5b6004600083815260200190815260200160002060009054906101000a900473ffffffffffffffffffffffffffffffffffffffff169050919050565b6000610633826107c0565b90508073ffffffffffffffffffffffffffffffffffffffff168373ffffffffffffffffffffffffffffffffffffffff1614156106a4576040517f08c379a000000000000000000000000000000000000000000000000000000000815260040161069b90612831565b60405180910390fd5b8073ffffffffffffffffffffffffffffffffffffffff166106c3610e55565b73ffffffffffffffffffffffffffffffffffffffff1614806106f257506106f1816106ec610e55565b610bf3565b5b610731576040517f08c379a000000000000000000000000000000000000000000000000000000000815260040161072890612711565b60405180910390fd5b61073b8383610e5d565b505050565b61075161074b610e55565b82610f16565b610790576040517f08c379a000000000000000000000000000000000000000000000000000000000815260040161078790612851565b60405180910390fd5b61079b838383610ff4565b505050565b6107bb83838360405180602001604052806000815250610b7f565b505050565b6000806002600084815260200190815260200160002060009054906101000a900473ffffffffffffffffffffffffffffffffffffffff169050600073ffffffffffffffffffffffffffffffffffffffff168173ffffffffffffffffffffffffffffffffffffffff161415610869576040517f08c379a000000000000000000000000000000000000000000000000000000000815260040161086090612751565b60405180910390fd5b80915050919050565b60008073ffffffffffffffffffffffffffffffffffffffff168273ffffffffffffffffffffffffffffffffffffffff1614156108e3576040517f08c379a00000000000000000000000000000000000000000000000000000000081526004016108da90612731565b60405180910390fd5b600360008373ffffffffffffffffffffffffffffffffffffffff1673ffffffffffffffffffffffffffffffffffffffff168152602001908152602001600020549050919050565b610932610e55565b73ffffffffffffffffffffffffffffffffffffffff166109506109b2565b73ffffffffffffffffffffffffffffffffffffffff16146109a6576040517f08c379a000000000000000000000000000000000000000000000000000000000815260040161099d906127f1565b60405180910390fd5b6109b0600061125b565b565b6000600760009054906101000a900473ffffffffffffffffffffffffffffffffffffffff16905090565b6060600180546109eb90612af9565b80601f0160208091040260200160405190810160405280929190818152602001828054610a1790612af9565b8015610a645780601f10610a3957610100808354040283529160200191610a64565b820191906000526020600020905b815481529060010190602001808311610a4757829003601f168201915b5050505050905090565b610a80610a79610e55565b8383611321565b5050565b60006509184e72a000341015610acf576040517f08c379a0000000000000000000000000000000000000000000000000000000008152600401610ac690612871565b60405180910390fd5b6000610adb600861148e565b9050610ae7600861149c565b610af133826114b2565b610afb81846114d0565b60008473ffffffffffffffffffffffffffffffffffffffff166108fc349081150290604051600060405180830381858888f19350505050905080610b74576040517f08c379a0000000000000000000000000000000000000000000000000000000008152600401610b6b90612691565b60405180910390fd5b819250505092915050565b610b90610b8a610e55565b83610f16565b610bcf576040517f08c379a0000000000000000000000000000000000000000000000000000000008152600401610bc690612851565b60405180910390fd5b610bdb84848484611544565b50505050565b6060610bec826115a0565b9050919050565b6000600560008473ffffffffffffffffffffffffffffffffffffffff1673ffffffffffffffffffffffffffffffffffffffff16815260200190815260200160002060008373ffffffffffffffffffffffffffffffffffffffff1673ffffffffffffffffffffffffffffffffffffffff16815260200190815260200160002060009054906101000a900460ff16905092915050565b610c8f610e55565b73ffffffffffffffffffffffffffffffffffffffff16610cad6109b2565b73ffffffffffffffffffffffffffffffffffffffff1614610d03576040517f08c379a0000000000000000000000000000000000000000000000000000000008152600401610cfa906127f1565b60405180910390fd5b600073ffffffffffffffffffffffffffffffffffffffff168173ffffffffffffffffffffffffffffffffffffffff161415610d73576040517f08c379a0000000000000000000000000000000000000000000000000000000008152600401610d6a90612631565b60405180910390fd5b610d7c8161125b565b50565b60007f01ffc9a7000000000000000000000000000000000000000000000000000000007bffffffffffffffffffffffffffffffffffffffffffffffffffffffff1916827bffffffffffffffffffffffffffffffffffffffffffffffffffffffff1916149050919050565b60008073ffffffffffffffffffffffffffffffffffffffff166002600084815260200190815260200160002060009054906101000a900473ffffffffffffffffffffffffffffffffffffffff1673ffffffffffffffffffffffffffffffffffffffff1614159050919050565b600033905090565b816004600083815260200190815260200160002060006101000a81548173ffffffffffffffffffffffffffffffffffffffff021916908373ffffffffffffffffffffffffffffffffffffffff160217905550808273ffffffffffffffffffffffffffffffffffffffff16610ed0836107c0565b73ffffffffffffffffffffffffffffffffffffffff167f8c5be1e5ebec7d5bd14f71427d1e84f3dd0314c0f7b2291e5b200ac8c7c3b92560405160405180910390a45050565b6000610f2182610de9565b610f60576040517f08c379a0000000000000000000000000000000000000000000000000000000008152600401610f57906126f1565b60405180910390fd5b6000610f6b836107c0565b90508073ffffffffffffffffffffffffffffffffffffffff168473ffffffffffffffffffffffffffffffffffffffff161480610fda57508373ffffffffffffffffffffffffffffffffffffffff16610fc2846105a3565b73ffffffffffffffffffffffffffffffffffffffff16145b80610feb5750610fea8185610bf3565b5b91505092915050565b8273ffffffffffffffffffffffffffffffffffffffff16611014826107c0565b73ffffffffffffffffffffffffffffffffffffffff161461106a576040517f08c379a000000000000000000000000000000000000000000000000000000000815260040161106190612651565b60405180910390fd5b600073ffffffffffffffffffffffffffffffffffffffff168273ffffffffffffffffffffffffffffffffffffffff1614156110da576040517f08c379a00000000000000000000000000000000000000000000000000000000081526004016110d1906126b1565b60405180910390fd5b6110e58383836116f2565b6110f0600082610e5d565b6001600360008573ffffffffffffffffffffffffffffffffffffffff1673ffffffffffffffffffffffffffffffffffffffff168152602001908152602001600020600082825461114091906129fd565b925050819055506001600360008473ffffffffffffffffffffffffffffffffffffffff1673ffffffffffffffffffffffffffffffffffffffff16815260200190815260200160002060008282546111979190612976565b92505081905550816002600083815260200190815260200160002060006101000a81548173ffffffffffffffffffffffffffffffffffffffff021916908373ffffffffffffffffffffffffffffffffffffffff160217905550808273ffffffffffffffffffffffffffffffffffffffff168473ffffffffffffffffffffffffffffffffffffffff167fddf252ad1be2c89b69c2b068fc378daa952ba7f163c4a11628f55a4df523b3ef60405160405180910390a46112568383836116f7565b505050565b6000600760009054906101000a900473ffffffffffffffffffffffffffffffffffffffff16905081600760006101000a81548173ffffffffffffffffffffffffffffffffffffffff021916908373ffffffffffffffffffffffffffffffffffffffff1602179055508173ffffffffffffffffffffffffffffffffffffffff168173ffffffffffffffffffffffffffffffffffffffff167f8be0079c531659141344cd1fd0a4f28419497f9722a3daafe3b4186f6b6457e060405160405180910390a35050565b8173ffffffffffffffffffffffffffffffffffffffff168373ffffffffffffffffffffffffffffffffffffffff161415611390576040517f08c379a0000000000000000000000000000000000000000000000000000000008152600401611387906126d1565b60405180910390fd5b80600560008573ffffffffffffffffffffffffffffffffffffffff1673ffffffffffffffffffffffffffffffffffffffff16815260200190815260200160002060008473ffffffffffffffffffffffffffffffffffffffff1673ffffffffffffffffffffffffffffffffffffffff16815260200190815260200160002060006101000a81548160ff0219169083151502179055508173ffffffffffffffffffffffffffffffffffffffff168373ffffffffffffffffffffffffffffffffffffffff167f17307eab39ab6107e8899845ad3d59bd9653f200f220920489ca2b5937696c318360405161148191906125d4565b60405180910390a3505050565b600081600001549050919050565b6001816000016000828254019250508190555050565b6114cc8282604051806020016040528060008152506116fc565b5050565b6114d982610de9565b611518576040517f08c379a000000000000000000000000000000000000000000000000000000000815260040161150f90612771565b60405180910390fd5b8060066000848152602001908152602001600020908051906020019061153f929190611d56565b505050565b61154f848484610ff4565b61155b84848484611757565b61159a576040517f08c379a000000000000000000000000000000000000000000000000000000000815260040161159190612611565b60405180910390fd5b50505050565b60606115ab82610de9565b6115ea576040517f08c379a00000000000000000000000000000000000000000000000000000000081526004016115e1906127b1565b60405180910390fd5b600060066000848152602001908152602001600020805461160a90612af9565b80601f016020809104026020016040519081016040528092919081815260200182805461163690612af9565b80156116835780601f1061165857610100808354040283529160200191611683565b820191906000526020600020905b81548152906001019060200180831161166657829003601f168201915b5050505050905060006116946118ee565b90506000815114156116aa5781925050506116ed565b6000825111156116df5780826040516020016116c7929190612549565b604051602081830303815290604052925050506116ed565b6116e884611905565b925050505b919050565b505050565b505050565b61170683836119ac565b6117136000848484611757565b611752576040517f08c379a000000000000000000000000000000000000000000000000000000000815260040161174990612611565b60405180910390fd5b505050565b60006117788473ffffffffffffffffffffffffffffffffffffffff16611b86565b156118e1578373ffffffffffffffffffffffffffffffffffffffff1663150b7a026117a1610e55565b8786866040518563ffffffff1660e01b81526004016117c39493929190612588565b602060405180830381600087803b1580156117dd57600080fd5b505af192505050801561180e57506040513d601f19601f8201168201806040525081019061180b919061216b565b60015b611891573d806000811461183e576040519150601f19603f3d011682016040523d82523d6000602084013e611843565b606091505b50600081511415611889576040517f08c379a000000000000000000000000000000000000000000000000000000000815260040161188090612611565b60405180910390fd5b805181602001fd5b63150b7a0260e01b7bffffffffffffffffffffffffffffffffffffffffffffffffffffffff1916817bffffffffffffffffffffffffffffffffffffffffffffffffffffffff1916149150506118e6565b600190505b949350505050565b606060405180602001604052806000815250905090565b606061191082610de9565b61194f576040517f08c379a000000000000000000000000000000000000000000000000000000000815260040161194690612811565b60405180910390fd5b60006119596118ee565b9050600081511161197957604051806020016040528060008152506119a4565b8061198384611ba9565b604051602001611994929190612549565b6040516020818303038152906040525b915050919050565b600073ffffffffffffffffffffffffffffffffffffffff168273ffffffffffffffffffffffffffffffffffffffff161415611a1c576040517f08c379a0000000000000000000000000000000000000000000000000000000008152600401611a1390612791565b60405180910390fd5b611a2581610de9565b15611a65576040517f08c379a0000000000000000000000000000000000000000000000000000000008152600401611a5c90612671565b60405180910390fd5b611a71600083836116f2565b6001600360008473ffffffffffffffffffffffffffffffffffffffff1673ffffffffffffffffffffffffffffffffffffffff1681526020019081526020016000206000828254611ac19190612976565b92505081905550816002600083815260200190815260200160002060006101000a81548173ffffffffffffffffffffffffffffffffffffffff021916908373ffffffffffffffffffffffffffffffffffffffff160217905550808273ffffffffffffffffffffffffffffffffffffffff16600073ffffffffffffffffffffffffffffffffffffffff167fddf252ad1be2c89b69c2b068fc378daa952ba7f163c4a11628f55a4df523b3ef60405160405180910390a4611b82600083836116f7565b5050565b6000808273ffffffffffffffffffffffffffffffffffffffff163b119050919050565b60606000821415611bf1576040518060400160405280600181526020017f30000000000000000000000000000000000000000000000000000000000000008152509050611d51565b600082905060005b60008214611c23578080611c0c90612b5c565b915050600a82611c1c91906129cc565b9150611bf9565b60008167ffffffffffffffff811115611c65577f4e487b7100000000000000000000000000000000000000000000000000000000600052604160045260246000fd5b6040519080825280601f01601f191660200182016040528015611c975781602001600182028036833780820191505090505b5090505b60008514611d4a57600182611cb091906129fd565b9150600a85611cbf9190612ba5565b6030611ccb9190612976565b60f81b818381518110611d07577f4e487b7100000000000000000000000000000000000000000000000000000000600052603260045260246000fd5b60200101907effffffffffffffffffffffffffffffffffffffffffffffffffffffffffffff1916908160001a905350600a85611d4391906129cc565b9450611c9b565b8093505050505b919050565b828054611d6290612af9565b90600052602060002090601f016020900481019282611d845760008555611dcb565b82601f10611d9d57805160ff1916838001178555611dcb565b82800160010185558215611dcb579182015b82811115611dca578251825591602001919060010190611daf565b5b509050611dd89190611ddc565b5090565b5b80821115611df5576000816000905550600101611ddd565b5090565b6000611e0c611e07846128d1565b6128ac565b905082815260208101848484011115611e2457600080fd5b611e2f848285612ab7565b509392505050565b6000611e4a611e4584612902565b6128ac565b905082815260208101848484011115611e6257600080fd5b611e6d848285612ab7565b509392505050565b600081359050611e84816131eb565b92915050565b600081359050611e9981613202565b92915050565b600081359050611eae81613219565b92915050565b600081359050611ec381613230565b92915050565b600081519050611ed881613230565b92915050565b600082601f830112611eef57600080fd5b8135611eff848260208601611df9565b91505092915050565b600082601f830112611f1957600080fd5b8135611f29848260208601611e37565b91505092915050565b600081359050611f4181613247565b92915050565b600060208284031215611f5957600080fd5b6000611f6784828501611e75565b91505092915050565b60008060408385031215611f8357600080fd5b6000611f9185828601611e8a565b925050602083013567ffffffffffffffff811115611fae57600080fd5b611fba85828601611f08565b9150509250929050565b60008060408385031215611fd757600080fd5b6000611fe585828601611e75565b9250506020611ff685828601611e75565b9150509250929050565b60008060006060848603121561201557600080fd5b600061202386828701611e75565b935050602061203486828701611e75565b925050604061204586828701611f32565b9150509250925092565b6000806000806080858703121561206557600080fd5b600061207387828801611e75565b945050602061208487828801611e75565b935050604061209587828801611f32565b925050606085013567ffffffffffffffff8111156120b257600080fd5b6120be87828801611ede565b91505092959194509250565b600080604083850312156120dd57600080fd5b60006120eb85828601611e75565b92505060206120fc85828601611e9f565b9150509250929050565b6000806040838503121561211957600080fd5b600061212785828601611e75565b925050602061213885828601611f32565b9150509250929050565b60006020828403121561215457600080fd5b600061216284828501611eb4565b91505092915050565b60006020828403121561217d57600080fd5b600061218b84828501611ec9565b91505092915050565b6000602082840312156121a657600080fd5b60006121b484828501611f32565b91505092915050565b6121c681612a31565b82525050565b6121d581612a55565b82525050565b60006121e682612933565b6121f08185612949565b9350612200818560208601612ac6565b61220981612c92565b840191505092915050565b600061221f8261293e565b612229818561295a565b9350612239818560208601612ac6565b61224281612c92565b840191505092915050565b60006122588261293e565b612262818561296b565b9350612272818560208601612ac6565b80840191505092915050565b600061228b60328361295a565b915061229682612ca3565b604082019050919050565b60006122ae60268361295a565b91506122b982612cf2565b604082019050919050565b60006122d160258361295a565b91506122dc82612d41565b604082019050919050565b60006122f4601c8361295a565b91506122ff82612d90565b602082019050919050565b600061231760148361295a565b915061232282612db9565b602082019050919050565b600061233a60248361295a565b915061234582612de2565b604082019050919050565b600061235d60198361295a565b915061236882612e31565b602082019050919050565b6000612380602c8361295a565b915061238b82612e5a565b604082019050919050565b60006123a360388361295a565b91506123ae82612ea9565b604082019050919050565b60006123c6602a8361295a565b91506123d182612ef8565b604082019050919050565b60006123e960298361295a565b91506123f482612f47565b604082019050919050565b600061240c602e8361295a565b915061241782612f96565b604082019050919050565b600061242f60208361295a565b915061243a82612fe5565b602082019050919050565b600061245260318361295a565b915061245d8261300e565b604082019050919050565b6000612475602c8361295a565b91506124808261305d565b604082019050919050565b600061249860208361295a565b91506124a3826130ac565b602082019050919050565b60006124bb602f8361295a565b91506124c6826130d5565b604082019050919050565b60006124de60218361295a565b91506124e982613124565b604082019050919050565b600061250160318361295a565b915061250c82613173565b604082019050919050565b600061252460138361295a565b915061252f826131c2565b602082019050919050565b61254381612aad565b82525050565b6000612555828561224d565b9150612561828461224d565b91508190509392505050565b600060208201905061258260008301846121bd565b92915050565b600060808201905061259d60008301876121bd565b6125aa60208301866121bd565b6125b7604083018561253a565b81810360608301526125c981846121db565b905095945050505050565b60006020820190506125e960008301846121cc565b92915050565b600060208201905081810360008301526126098184612214565b905092915050565b6000602082019050818103600083015261262a8161227e565b9050919050565b6000602082019050818103600083015261264a816122a1565b9050919050565b6000602082019050818103600083015261266a816122c4565b9050919050565b6000602082019050818103600083015261268a816122e7565b9050919050565b600060208201905081810360008301526126aa8161230a565b9050919050565b600060208201905081810360008301526126ca8161232d565b9050919050565b600060208201905081810360008301526126ea81612350565b9050919050565b6000602082019050818103600083015261270a81612373565b9050919050565b6000602082019050818103600083015261272a81612396565b9050919050565b6000602082019050818103600083015261274a816123b9565b9050919050565b6000602082019050818103600083015261276a816123dc565b9050919050565b6000602082019050818103600083015261278a816123ff565b9050919050565b600060208201905081810360008301526127aa81612422565b9050919050565b600060208201905081810360008301526127ca81612445565b9050919050565b600060208201905081810360008301526127ea81612468565b9050919050565b6000602082019050818103600083015261280a8161248b565b9050919050565b6000602082019050818103600083015261282a816124ae565b9050919050565b6000602082019050818103600083015261284a816124d1565b9050919050565b6000602082019050818103600083015261286a816124f4565b9050919050565b6000602082019050818103600083015261288a81612517565b9050919050565b60006020820190506128a6600083018461253a565b92915050565b60006128b66128c7565b90506128c28282612b2b565b919050565b6000604051905090565b600067ffffffffffffffff8211156128ec576128eb612c63565b5b6128f582612c92565b9050602081019050919050565b600067ffffffffffffffff82111561291d5761291c612c63565b5b61292682612c92565b9050602081019050919050565b600081519050919050565b600081519050919050565b600082825260208201905092915050565b600082825260208201905092915050565b600081905092915050565b600061298182612aad565b915061298c83612aad565b9250827fffffffffffffffffffffffffffffffffffffffffffffffffffffffffffffffff038211156129c1576129c0612bd6565b5b828201905092915050565b60006129d782612aad565b91506129e283612aad565b9250826129f2576129f1612c05565b5b828204905092915050565b6000612a0882612aad565b9150612a1383612aad565b925082821015612a2657612a25612bd6565b5b828203905092915050565b6000612a3c82612a8d565b9050919050565b6000612a4e82612a8d565b9050919050565b60008115159050919050565b60007fffffffff0000000000000000000000000000000000000000000000000000000082169050919050565b600073ffffffffffffffffffffffffffffffffffffffff82169050919050565b6000819050919050565b82818337600083830152505050565b60005b83811015612ae4578082015181840152602081019050612ac9565b83811115612af3576000848401525b50505050565b60006002820490506001821680612b1157607f821691505b60208210811415612b2557612b24612c34565b5b50919050565b612b3482612c92565b810181811067ffffffffffffffff82111715612b5357612b52612c63565b5b80604052505050565b6000612b6782612aad565b91507fffffffffffffffffffffffffffffffffffffffffffffffffffffffffffffffff821415612b9a57612b99612bd6565b5b600182019050919050565b6000612bb082612aad565b9150612bbb83612aad565b925082612bcb57612bca612c05565b5b828206905092915050565b7f4e487b7100000000000000000000000000000000000000000000000000000000600052601160045260246000fd5b7f4e487b7100000000000000000000000000000000000000000000000000000000600052601260045260246000fd5b7f4e487b7100000000000000000000000000000000000000000000000000000000600052602260045260246000fd5b7f4e487b7100000000000000000000000000000000000000000000000000000000600052604160045260246000fd5b6000601f19601f8301169050919050565b7f4552433732313a207472616e7366657220746f206e6f6e20455243373231526560008201527f63656976657220696d706c656d656e7465720000000000000000000000000000602082015250565b7f4f776e61626c653a206e6577206f776e657220697320746865207a65726f206160008201527f6464726573730000000000000000000000000000000000000000000000000000602082015250565b7f4552433732313a207472616e736665722066726f6d20696e636f72726563742060008201527f6f776e6572000000000000000000000000000000000000000000000000000000602082015250565b7f4552433732313a20746f6b656e20616c7265616479206d696e74656400000000600082015250565b7f4661696c656420746f2073656e64204574686572000000000000000000000000600082015250565b7f4552433732313a207472616e7366657220746f20746865207a65726f2061646460008201527f7265737300000000000000000000000000000000000000000000000000000000602082015250565b7f4552433732313a20617070726f766520746f2063616c6c657200000000000000600082015250565b7f4552433732313a206f70657261746f7220717565727920666f72206e6f6e657860008201527f697374656e7420746f6b656e0000000000000000000000000000000000000000602082015250565b7f4552433732313a20617070726f76652063616c6c6572206973206e6f74206f7760008201527f6e6572206e6f7220617070726f76656420666f7220616c6c0000000000000000602082015250565b7f4552433732313a2062616c616e636520717565727920666f7220746865207a6560008201527f726f206164647265737300000000000000000000000000000000000000000000602082015250565b7f4552433732313a206f776e657220717565727920666f72206e6f6e657869737460008201527f656e7420746f6b656e0000000000000000000000000000000000000000000000602082015250565b7f45524337323155524953746f726167653a2055524920736574206f66206e6f6e60008201527f6578697374656e7420746f6b656e000000000000000000000000000000000000602082015250565b7f4552433732313a206d696e7420746f20746865207a65726f2061646472657373600082015250565b7f45524337323155524953746f726167653a2055524920717565727920666f722060008201527f6e6f6e6578697374656e7420746f6b656e000000000000000000000000000000602082015250565b7f4552433732313a20617070726f76656420717565727920666f72206e6f6e657860008201527f697374656e7420746f6b656e0000000000000000000000000000000000000000602082015250565b7f4f776e61626c653a2063616c6c6572206973206e6f7420746865206f776e6572600082015250565b7f4552433732314d657461646174613a2055524920717565727920666f72206e6f60008201527f6e6578697374656e7420746f6b656e0000000000000000000000000000000000602082015250565b7f4552433732313a20617070726f76616c20746f2063757272656e74206f776e6560008201527f7200000000000000000000000000000000000000000000000000000000000000602082015250565b7f4552433732313a207472616e736665722063616c6c6572206973206e6f74206f60008201527f776e6572206e6f7220617070726f766564000000000000000000000000000000602082015250565b7f4265206e69636520616e6420646f6e6174652100000000000000000000000000600082015250565b6131f481612a31565b81146131ff57600080fd5b50565b61320b81612a43565b811461321657600080fd5b50565b61322281612a55565b811461322d57600080fd5b50565b61323981612a61565b811461324457600080fd5b50565b61325081612aad565b811461325b57600080fd5b5056fea2646970667358221220552341bb5f1d4bcf7376ba8e28273e1794ea3fce7b9bb3d90bf979f3c5685b9f64736f6c63430008010033",
  "linkReferences": {},
  "deployedLinkReferences": {}
}