{
  "_format": "hh-sol-artifact-1",
  "contractName": "Maxima",
  "sourceName": "contracts/Maxima.sol",
  "abi": [
    {
      "inputs": [],
      "stateMutability": "nonpayable",
      "type": "constructor"
    },
    {
      "anonymous": false,
      "inputs": [
        {
          "indexed": true,
          "internalType": "address",
          "name": "owner",
          "type": "address"
        },
        {
          "indexed": true,
          "internalType": "address",
          "name": "approved",
          "type": "address"
        },
        {
          "indexed": true,
          "internalType": "uint256",
          "name": "tokenId",
          "type": "uint256"
        }
      ],
      "name": "Approval",
      "type": "event"
    },
    {
      "anonymous": false,
      "inputs": [
        {
          "indexed": true,
          "internalType": "address",
          "name": "owner",
          "type": "address"
        },
        {
          "indexed": true,
          "internalType": "address",
          "name": "operator",
          "type": "address"
        },
        {
          "indexed": false,
          "internalType": "bool",
          "name": "approved",
          "type": "bool"
        }
      ],
      "name": "ApprovalForAll",
      "type": "event"
    },
    {
      "anonymous": false,
      "inputs": [
        {
          "indexed": false,
          "internalType": "address",
          "name": "sender",
          "type": "address"
        },
        {
          "indexed": false,
          "internalType": "uint256",
          "name": "tokenId",
          "type": "uint256"
        }
      ],
      "name": "NewWordleNFTMinted",
      "type": "event"
    },
    {
      "anonymous": false,
      "inputs": [
        {
          "indexed": true,
          "internalType": "address",
          "name": "previousOwner",
          "type": "address"
        },
        {
          "indexed": true,
          "internalType": "address",
          "name": "newOwner",
          "type": "address"
        }
      ],
      "name": "OwnershipTransferred",
      "type": "event"
    },
    {
      "anonymous": false,
      "inputs": [
        {
          "indexed": true,
          "internalType": "address",
          "name": "from",
          "type": "address"
        },
        {
          "indexed": true,
          "internalType": "address",
          "name": "to",
          "type": "address"
        },
        {
          "indexed": true,
          "internalType": "uint256",
          "name": "tokenId",
          "type": "uint256"
        }
      ],
      "name": "Transfer",
      "type": "event"
    },
    {
      "inputs": [
        {
          "internalType": "address",
          "name": "to",
          "type": "address"
        },
        {
          "internalType": "uint256",
          "name": "tokenId",
          "type": "uint256"
        }
      ],
      "name": "approve",
      "outputs": [],
      "stateMutability": "nonpayable",
      "type": "function"
    },
    {
      "inputs": [
        {
          "internalType": "address",
          "name": "owner",
          "type": "address"
        }
      ],
      "name": "balanceOf",
      "outputs": [
        {
          "internalType": "uint256",
          "name": "",
          "type": "uint256"
        }
      ],
      "stateMutability": "view",
      "type": "function"
    },
    {
      "inputs": [
        {
          "internalType": "uint256",
          "name": "tokenId",
          "type": "uint256"
        }
      ],
      "name": "getApproved",
      "outputs": [
        {
          "internalType": "address",
          "name": "",
          "type": "address"
        }
      ],
      "stateMutability": "view",
      "type": "function"
    },
    {
      "inputs": [
        {
          "internalType": "address",
          "name": "owner",
          "type": "address"
        },
        {
          "internalType": "address",
          "name": "operator",
          "type": "address"
        }
      ],
      "name": "isApprovedForAll",
      "outputs": [
        {
          "internalType": "bool",
          "name": "",
          "type": "bool"
        }
      ],
      "stateMutability": "view",
      "type": "function"
    },
    {
      "inputs": [
        {
          "internalType": "string",
          "name": "uri",
          "type": "string"
        }
      ],
      "name": "isContentOwned",
      "outputs": [
        {
          "internalType": "bool",
          "name": "",
          "type": "bool"
        }
      ],
      "stateMutability": "view",
      "type": "function"
    },
    {
      "inputs": [],
      "name": "name",
      "outputs": [
        {
          "internalType": "string",
          "name": "",
          "type": "string"
        }
      ],
      "stateMutability": "view",
      "type": "function"
    },
    {
      "inputs": [],
      "name": "owner",
      "outputs": [
        {
          "internalType": "address",
          "name": "",
          "type": "address"
        }
      ],
      "stateMutability": "view",
      "type": "function"
    },
    {
      "inputs": [
        {
          "internalType": "uint256",
          "name": "tokenId",
          "type": "uint256"
        }
      ],
      "name": "ownerOf",
      "outputs": [
        {
          "internalType": "address",
          "name": "",
          "type": "address"
        }
      ],
      "stateMutability": "view",
      "type": "function"
    },
    {
      "inputs": [
        {
          "internalType": "address",
          "name": "recipient",
          "type": "address"
        },
        {
          "internalType": "string",
          "name": "metadataURI",
          "type": "string"
        }
      ],
      "name": "payToMint",
      "outputs": [
        {
          "internalType": "uint256",
          "name": "",
          "type": "uint256"
        }
      ],
      "stateMutability": "payable",
      "type": "function"
    },
    {
      "inputs": [],
      "name": "renounceOwnership",
      "outputs": [],
      "stateMutability": "nonpayable",
      "type": "function"
    },
    {
      "inputs": [
        {
          "internalType": "address",
          "name": "from",
          "type": "address"
        },
        {
          "internalType": "address",
          "name": "to",
          "type": "address"
        },
        {
          "internalType": "uint256",
          "name": "tokenId",
          "type": "uint256"
        }
      ],
      "name": "safeTransferFrom",
      "outputs": [],
      "stateMutability": "nonpayable",
      "type": "function"
    },
    {
      "inputs": [
        {
          "internalType": "address",
          "name": "from",
          "type": "address"
        },
        {
          "internalType": "address",
          "name": "to",
          "type": "address"
        },
        {
          "internalType": "uint256",
          "name": "tokenId",
          "type": "uint256"
        },
        {
          "internalType": "bytes",
          "name": "_data",
          "type": "bytes"
        }
      ],
      "name": "safeTransferFrom",
      "outputs": [],
      "stateMutability": "nonpayable",
      "type": "function"
    },
    {
      "inputs": [
        {
          "internalType": "address",
          "name": "operator",
          "type": "address"
        },
        {
          "internalType": "bool",
          "name": "approved",
          "type": "bool"
        }
      ],
      "name": "setApprovalForAll",
      "outputs": [],
      "stateMutability": "nonpayable",
      "type": "function"
    },
    {
      "inputs": [
        {
          "internalType": "bytes4",
          "name": "interfaceId",
          "type": "bytes4"
        }
      ],
      "name": "supportsInterface",
      "outputs": [
        {
          "internalType": "bool",
          "name": "",
          "type": "bool"
        }
      ],
      "stateMutability": "view",
      "type": "function"
    },
    {
      "inputs": [],
      "name": "symbol",
      "outputs": [
        {
          "internalType": "string",
          "name": "",
          "type": "string"
        }
      ],
      "stateMutability": "view",
      "type": "function"
    },
    {
      "inputs": [
        {
          "internalType": "uint256",
          "name": "tokenId",
          "type": "uint256"
        }
      ],
      "name": "tokenURI",
      "outputs": [
        {
          "internalType": "string",
          "name": "",
          "type": "string"
        }
      ],
      "stateMutability": "view",
      "type": "function"
    },
    {
      "inputs": [
        {
          "internalType": "address",
          "name": "from",
          "type": "address"
        },
        {
          "internalType": "address",
          "name": "to",
          "type": "address"
        },
        {
          "internalType": "uint256",
          "name": "tokenId",
          "type": "uint256"
        }
      ],
      "name": "transferFrom",
      "outputs": [],
      "stateMutability": "nonpayable",
      "type": "function"
    },
    {
      "inputs": [
        {
          "internalType": "address",
          "name": "newOwner",
          "type": "address"
        }
      ],
      "name": "transferOwnership",
      "outputs": [],
      "stateMutability": "nonpayable",
      "type": "function"
    }
  ],
  "bytecode": "0x60806040523480156200001157600080fd5b506040518060400160405280600981526020017f576f72646c654e465400000000000000000000000000000000000000000000008152506040518060400160405280600681526020017f4d4158494d410000000000000000000000000000000000000000000000000000815250816000908051906020019062000096929190620002bd565b508060019080519060200190620000af929190620002bd565b505050620000d2620000c66200012360201b60201c565b6200012b60201b60201c565b6200011d6040518060400160405280601e81526020017f54686973206973206d79204e465420636f6e74726163742e20576f6168210000815250620001f160201b62000e331760201c565b6200049a565b600033905090565b6000600760009054906101000a900473ffffffffffffffffffffffffffffffffffffffff16905081600760006101000a81548173ffffffffffffffffffffffffffffffffffffffff021916908373ffffffffffffffffffffffffffffffffffffffff1602179055508173ffffffffffffffffffffffffffffffffffffffff168173ffffffffffffffffffffffffffffffffffffffff167f8be0079c531659141344cd1fd0a4f28419497f9722a3daafe3b4186f6b6457e060405160405180910390a35050565b6200029181604051602401620002089190620003ae565b6040516020818303038152906040527f41304fac000000000000000000000000000000000000000000000000000000007bffffffffffffffffffffffffffffffffffffffffffffffffffffffff19166020820180517bffffffffffffffffffffffffffffffffffffffffffffffffffffffff83818316178352505050506200029460201b60201c565b50565b60008151905060006a636f6e736f6c652e6c6f679050602083016000808483855afa5050505050565b828054620002cb9062000424565b90600052602060002090601f016020900481019282620002ef57600085556200033b565b82601f106200030a57805160ff19168380011785556200033b565b828001600101855582156200033b579182015b828111156200033a5782518255916020019190600101906200031d565b5b5090506200034a91906200034e565b5090565b5b80821115620003695760008160009055506001016200034f565b5090565b60006200037a82620003d2565b620003868185620003dd565b935062000398818560208601620003ee565b620003a38162000489565b840191505092915050565b60006020820190508181036000830152620003ca81846200036d565b905092915050565b600081519050919050565b600082825260208201905092915050565b60005b838110156200040e578082015181840152602081019050620003f1565b838111156200041e576000848401525b50505050565b600060028204905060018216806200043d57607f821691505b602082108114156200045457620004536200045a565b5b50919050565b7f4e487b7100000000000000000000000000000000000000000000000000000000600052602260045260246000fd5b6000601f19601f8301169050919050565b6133d180620004aa6000396000f3fe6080604052600436106101095760003560e01c8063715018a611610095578063a22cb46511610064578063a22cb46514610382578063b88d4fde146103ab578063c87b56dd146103d4578063e985e9c514610411578063f2fde38b1461044e57610109565b8063715018a6146102d85780638da5cb5b146102ef57806395d89b411461031a5780639f1cabc61461034557610109565b806323b872dd116100dc57806323b872dd146101dc57806342842e0e14610205578063615fd9e21461022e5780636352211e1461025e57806370a082311461029b57610109565b806301ffc9a71461010e57806306fdde031461014b578063081812fc14610176578063095ea7b3146101b3575b600080fd5b34801561011a57600080fd5b5061013560048036038101906101309190612250565b610477565b604051610142919061273a565b60405180910390f35b34801561015757600080fd5b50610160610559565b60405161016d9190612755565b60405180910390f35b34801561018257600080fd5b5061019d600480360381019061019891906122e3565b6105eb565b6040516101aa91906126d3565b60405180910390f35b3480156101bf57600080fd5b506101da60048036038101906101d59190612214565b610670565b005b3480156101e857600080fd5b5061020360048036038101906101fe91906120ba565b610788565b005b34801561021157600080fd5b5061022c600480360381019061022791906120ba565b6107e8565b005b610248600480360381019061024391906121c0565b610808565b60405161025591906129f7565b60405180910390f35b34801561026a57600080fd5b50610285600480360381019061028091906122e3565b610934565b60405161029291906126d3565b60405180910390f35b3480156102a757600080fd5b506102c260048036038101906102bd9190612055565b6109e6565b6040516102cf91906129f7565b60405180910390f35b3480156102e457600080fd5b506102ed610a9e565b005b3480156102fb57600080fd5b50610304610b26565b60405161031191906126d3565b60405180910390f35b34801561032657600080fd5b5061032f610b50565b60405161033c9190612755565b60405180910390f35b34801561035157600080fd5b5061036c600480360381019061036791906122a2565b610be2565b604051610379919061273a565b60405180910390f35b34801561038e57600080fd5b506103a960048036038101906103a49190612184565b610c1d565b005b3480156103b757600080fd5b506103d260048036038101906103cd9190612109565b610c33565b005b3480156103e057600080fd5b506103fb60048036038101906103f691906122e3565b610c95565b6040516104089190612755565b60405180910390f35b34801561041d57600080fd5b506104386004803603810190610433919061207e565b610ca7565b604051610445919061273a565b60405180910390f35b34801561045a57600080fd5b5061047560048036038101906104709190612055565b610d3b565b005b60007f80ac58cd000000000000000000000000000000000000000000000000000000007bffffffffffffffffffffffffffffffffffffffffffffffffffffffff1916827bffffffffffffffffffffffffffffffffffffffffffffffffffffffff1916148061054257507f5b5e139f000000000000000000000000000000000000000000000000000000007bffffffffffffffffffffffffffffffffffffffffffffffffffffffff1916827bffffffffffffffffffffffffffffffffffffffffffffffffffffffff1916145b80610552575061055182610ecc565b5b9050919050565b60606000805461056890612c4d565b80601f016020809104026020016040519081016040528092919081815260200182805461059490612c4d565b80156105e15780601f106105b6576101008083540402835291602001916105e1565b820191906000526020600020905b8154815290600101906020018083116105c457829003601f168201915b5050505050905090565b60006105f682610f36565b610635576040517f08c379a000000000000000000000000000000000000000000000000000000000815260040161062c90612917565b60405180910390fd5b6004600083815260200190815260200160002060009054906101000a900473ffffffffffffffffffffffffffffffffffffffff169050919050565b600061067b82610934565b90508073ffffffffffffffffffffffffffffffffffffffff168373ffffffffffffffffffffffffffffffffffffffff1614156106ec576040517f08c379a00000000000000000000000000000000000000000000000000000000081526004016106e390612977565b60405180910390fd5b8073ffffffffffffffffffffffffffffffffffffffff1661070b610fa2565b73ffffffffffffffffffffffffffffffffffffffff16148061073a575061073981610734610fa2565b610ca7565b5b610779576040517f08c379a000000000000000000000000000000000000000000000000000000000815260040161077090612857565b60405180910390fd5b6107838383610faa565b505050565b610799610793610fa2565b82611063565b6107d8576040517f08c379a00000000000000000000000000000000000000000000000000000000081526004016107cf90612997565b60405180910390fd5b6107e3838383611141565b505050565b61080383838360405180602001604052806000815250610c33565b505050565b6000600160098360405161081c9190612698565b908152602001604051809103902060009054906101000a900460ff1660ff16141561087c576040517f08c379a0000000000000000000000000000000000000000000000000000000008152600401610873906129b7565b60405180910390fd5b6601c6bf526340003410156108c6576040517f08c379a00000000000000000000000000000000000000000000000000000000081526004016108bd906129d7565b60405180910390fd5b60006108d260086113a8565b90506108de60086113b6565b60016009846040516108f09190612698565b908152602001604051809103902060006101000a81548160ff021916908360ff16021790555061092084826113cc565b61092a81846115a6565b8091505092915050565b6000806002600084815260200190815260200160002060009054906101000a900473ffffffffffffffffffffffffffffffffffffffff169050600073ffffffffffffffffffffffffffffffffffffffff168173ffffffffffffffffffffffffffffffffffffffff1614156109dd576040517f08c379a00000000000000000000000000000000000000000000000000000000081526004016109d490612897565b60405180910390fd5b80915050919050565b60008073ffffffffffffffffffffffffffffffffffffffff168273ffffffffffffffffffffffffffffffffffffffff161415610a57576040517f08c379a0000000000000000000000000000000000000000000000000000000008152600401610a4e90612877565b60405180910390fd5b600360008373ffffffffffffffffffffffffffffffffffffffff1673ffffffffffffffffffffffffffffffffffffffff168152602001908152602001600020549050919050565b610aa6610fa2565b73ffffffffffffffffffffffffffffffffffffffff16610ac4610b26565b73ffffffffffffffffffffffffffffffffffffffff1614610b1a576040517f08c379a0000000000000000000000000000000000000000000000000000000008152600401610b1190612937565b60405180910390fd5b610b24600061161a565b565b6000600760009054906101000a900473ffffffffffffffffffffffffffffffffffffffff16905090565b606060018054610b5f90612c4d565b80601f0160208091040260200160405190810160405280929190818152602001828054610b8b90612c4d565b8015610bd85780601f10610bad57610100808354040283529160200191610bd8565b820191906000526020600020905b815481529060010190602001808311610bbb57829003601f168201915b5050505050905090565b60006001600983604051610bf69190612698565b908152602001604051809103902060009054906101000a900460ff1660ff16149050919050565b610c2f610c28610fa2565b83836116e0565b5050565b610c44610c3e610fa2565b83611063565b610c83576040517f08c379a0000000000000000000000000000000000000000000000000000000008152600401610c7a90612997565b60405180910390fd5b610c8f8484848461184d565b50505050565b6060610ca0826118a9565b9050919050565b6000600560008473ffffffffffffffffffffffffffffffffffffffff1673ffffffffffffffffffffffffffffffffffffffff16815260200190815260200160002060008373ffffffffffffffffffffffffffffffffffffffff1673ffffffffffffffffffffffffffffffffffffffff16815260200190815260200160002060009054906101000a900460ff16905092915050565b610d43610fa2565b73ffffffffffffffffffffffffffffffffffffffff16610d61610b26565b73ffffffffffffffffffffffffffffffffffffffff1614610db7576040517f08c379a0000000000000000000000000000000000000000000000000000000008152600401610dae90612937565b60405180910390fd5b600073ffffffffffffffffffffffffffffffffffffffff168173ffffffffffffffffffffffffffffffffffffffff161415610e27576040517f08c379a0000000000000000000000000000000000000000000000000000000008152600401610e1e90612797565b60405180910390fd5b610e308161161a565b50565b610ec981604051602401610e479190612755565b6040516020818303038152906040527f41304fac000000000000000000000000000000000000000000000000000000007bffffffffffffffffffffffffffffffffffffffffffffffffffffffff19166020820180517bffffffffffffffffffffffffffffffffffffffffffffffffffffffff83818316178352505050506119fb565b50565b60007f01ffc9a7000000000000000000000000000000000000000000000000000000007bffffffffffffffffffffffffffffffffffffffffffffffffffffffff1916827bffffffffffffffffffffffffffffffffffffffffffffffffffffffff1916149050919050565b60008073ffffffffffffffffffffffffffffffffffffffff166002600084815260200190815260200160002060009054906101000a900473ffffffffffffffffffffffffffffffffffffffff1673ffffffffffffffffffffffffffffffffffffffff1614159050919050565b600033905090565b816004600083815260200190815260200160002060006101000a81548173ffffffffffffffffffffffffffffffffffffffff021916908373ffffffffffffffffffffffffffffffffffffffff160217905550808273ffffffffffffffffffffffffffffffffffffffff1661101d83610934565b73ffffffffffffffffffffffffffffffffffffffff167f8c5be1e5ebec7d5bd14f71427d1e84f3dd0314c0f7b2291e5b200ac8c7c3b92560405160405180910390a45050565b600061106e82610f36565b6110ad576040517f08c379a00000000000000000000000000000000000000000000000000000000081526004016110a490612837565b60405180910390fd5b60006110b883610934565b90508073ffffffffffffffffffffffffffffffffffffffff168473ffffffffffffffffffffffffffffffffffffffff16148061112757508373ffffffffffffffffffffffffffffffffffffffff1661110f846105eb565b73ffffffffffffffffffffffffffffffffffffffff16145b8061113857506111378185610ca7565b5b91505092915050565b8273ffffffffffffffffffffffffffffffffffffffff1661116182610934565b73ffffffffffffffffffffffffffffffffffffffff16146111b7576040517f08c379a00000000000000000000000000000000000000000000000000000000081526004016111ae906127b7565b60405180910390fd5b600073ffffffffffffffffffffffffffffffffffffffff168273ffffffffffffffffffffffffffffffffffffffff161415611227576040517f08c379a000000000000000000000000000000000000000000000000000000000815260040161121e906127f7565b60405180910390fd5b611232838383611a24565b61123d600082610faa565b6001600360008573ffffffffffffffffffffffffffffffffffffffff1673ffffffffffffffffffffffffffffffffffffffff168152602001908152602001600020600082825461128d9190612b63565b925050819055506001600360008473ffffffffffffffffffffffffffffffffffffffff1673ffffffffffffffffffffffffffffffffffffffff16815260200190815260200160002060008282546112e49190612adc565b92505081905550816002600083815260200190815260200160002060006101000a81548173ffffffffffffffffffffffffffffffffffffffff021916908373ffffffffffffffffffffffffffffffffffffffff160217905550808273ffffffffffffffffffffffffffffffffffffffff168473ffffffffffffffffffffffffffffffffffffffff167fddf252ad1be2c89b69c2b068fc378daa952ba7f163c4a11628f55a4df523b3ef60405160405180910390a46113a3838383611a29565b505050565b600081600001549050919050565b6001816000016000828254019250508190555050565b600073ffffffffffffffffffffffffffffffffffffffff168273ffffffffffffffffffffffffffffffffffffffff16141561143c576040517f08c379a0000000000000000000000000000000000000000000000000000000008152600401611433906128d7565b60405180910390fd5b61144581610f36565b15611485576040517f08c379a000000000000000000000000000000000000000000000000000000000815260040161147c906127d7565b60405180910390fd5b61149160008383611a24565b6001600360008473ffffffffffffffffffffffffffffffffffffffff1673ffffffffffffffffffffffffffffffffffffffff16815260200190815260200160002060008282546114e19190612adc565b92505081905550816002600083815260200190815260200160002060006101000a81548173ffffffffffffffffffffffffffffffffffffffff021916908373ffffffffffffffffffffffffffffffffffffffff160217905550808273ffffffffffffffffffffffffffffffffffffffff16600073ffffffffffffffffffffffffffffffffffffffff167fddf252ad1be2c89b69c2b068fc378daa952ba7f163c4a11628f55a4df523b3ef60405160405180910390a46115a260008383611a29565b5050565b6115af82610f36565b6115ee576040517f08c379a00000000000000000000000000000000000000000000000000000000081526004016115e5906128b7565b60405180910390fd5b80600660008481526020019081526020016000209080519060200190611615929190611e79565b505050565b6000600760009054906101000a900473ffffffffffffffffffffffffffffffffffffffff16905081600760006101000a81548173ffffffffffffffffffffffffffffffffffffffff021916908373ffffffffffffffffffffffffffffffffffffffff1602179055508173ffffffffffffffffffffffffffffffffffffffff168173ffffffffffffffffffffffffffffffffffffffff167f8be0079c531659141344cd1fd0a4f28419497f9722a3daafe3b4186f6b6457e060405160405180910390a35050565b8173ffffffffffffffffffffffffffffffffffffffff168373ffffffffffffffffffffffffffffffffffffffff16141561174f576040517f08c379a000000000000000000000000000000000000000000000000000000000815260040161174690612817565b60405180910390fd5b80600560008573ffffffffffffffffffffffffffffffffffffffff1673ffffffffffffffffffffffffffffffffffffffff16815260200190815260200160002060008473ffffffffffffffffffffffffffffffffffffffff1673ffffffffffffffffffffffffffffffffffffffff16815260200190815260200160002060006101000a81548160ff0219169083151502179055508173ffffffffffffffffffffffffffffffffffffffff168373ffffffffffffffffffffffffffffffffffffffff167f17307eab39ab6107e8899845ad3d59bd9653f200f220920489ca2b5937696c3183604051611840919061273a565b60405180910390a3505050565b611858848484611141565b61186484848484611a2e565b6118a3576040517f08c379a000000000000000000000000000000000000000000000000000000000815260040161189a90612777565b60405180910390fd5b50505050565b60606118b482610f36565b6118f3576040517f08c379a00000000000000000000000000000000000000000000000000000000081526004016118ea906128f7565b60405180910390fd5b600060066000848152602001908152602001600020805461191390612c4d565b80601f016020809104026020016040519081016040528092919081815260200182805461193f90612c4d565b801561198c5780601f106119615761010080835404028352916020019161198c565b820191906000526020600020905b81548152906001019060200180831161196f57829003601f168201915b50505050509050600061199d611bc5565b90506000815114156119b35781925050506119f6565b6000825111156119e85780826040516020016119d09291906126af565b604051602081830303815290604052925050506119f6565b6119f184611c02565b925050505b919050565b60008151905060006a636f6e736f6c652e6c6f679050602083016000808483855afa5050505050565b505050565b505050565b6000611a4f8473ffffffffffffffffffffffffffffffffffffffff16611ca9565b15611bb8578373ffffffffffffffffffffffffffffffffffffffff1663150b7a02611a78610fa2565b8786866040518563ffffffff1660e01b8152600401611a9a94939291906126ee565b602060405180830381600087803b158015611ab457600080fd5b505af1925050508015611ae557506040513d601f19601f82011682018060405250810190611ae29190612279565b60015b611b68573d8060008114611b15576040519150601f19603f3d011682016040523d82523d6000602084013e611b1a565b606091505b50600081511415611b60576040517f08c379a0000000000000000000000000000000000000000000000000000000008152600401611b5790612777565b60405180910390fd5b805181602001fd5b63150b7a0260e01b7bffffffffffffffffffffffffffffffffffffffffffffffffffffffff1916817bffffffffffffffffffffffffffffffffffffffffffffffffffffffff191614915050611bbd565b600190505b949350505050565b60606040518060400160405280600781526020017f697066733a2f2f00000000000000000000000000000000000000000000000000815250905090565b6060611c0d82610f36565b611c4c576040517f08c379a0000000000000000000000000000000000000000000000000000000008152600401611c4390612957565b60405180910390fd5b6000611c56611bc5565b90506000815111611c765760405180602001604052806000815250611ca1565b80611c8084611ccc565b604051602001611c919291906126af565b6040516020818303038152906040525b915050919050565b6000808273ffffffffffffffffffffffffffffffffffffffff163b119050919050565b60606000821415611d14576040518060400160405280600181526020017f30000000000000000000000000000000000000000000000000000000000000008152509050611e74565b600082905060005b60008214611d46578080611d2f90612cb0565b915050600a82611d3f9190612b32565b9150611d1c565b60008167ffffffffffffffff811115611d88577f4e487b7100000000000000000000000000000000000000000000000000000000600052604160045260246000fd5b6040519080825280601f01601f191660200182016040528015611dba5781602001600182028036833780820191505090505b5090505b60008514611e6d57600182611dd39190612b63565b9150600a85611de29190612cf9565b6030611dee9190612adc565b60f81b818381518110611e2a577f4e487b7100000000000000000000000000000000000000000000000000000000600052603260045260246000fd5b60200101907effffffffffffffffffffffffffffffffffffffffffffffffffffffffffffff1916908160001a905350600a85611e669190612b32565b9450611dbe565b8093505050505b919050565b828054611e8590612c4d565b90600052602060002090601f016020900481019282611ea75760008555611eee565b82601f10611ec057805160ff1916838001178555611eee565b82800160010185558215611eee579182015b82811115611eed578251825591602001919060010190611ed2565b5b509050611efb9190611eff565b5090565b5b80821115611f18576000816000905550600101611f00565b5090565b6000611f2f611f2a84612a37565b612a12565b905082815260208101848484011115611f4757600080fd5b611f52848285612c0b565b509392505050565b6000611f6d611f6884612a68565b612a12565b905082815260208101848484011115611f8557600080fd5b611f90848285612c0b565b509392505050565b600081359050611fa78161333f565b92915050565b600081359050611fbc81613356565b92915050565b600081359050611fd18161336d565b92915050565b600081519050611fe68161336d565b92915050565b600082601f830112611ffd57600080fd5b813561200d848260208601611f1c565b91505092915050565b600082601f83011261202757600080fd5b8135612037848260208601611f5a565b91505092915050565b60008135905061204f81613384565b92915050565b60006020828403121561206757600080fd5b600061207584828501611f98565b91505092915050565b6000806040838503121561209157600080fd5b600061209f85828601611f98565b92505060206120b085828601611f98565b9150509250929050565b6000806000606084860312156120cf57600080fd5b60006120dd86828701611f98565b93505060206120ee86828701611f98565b92505060406120ff86828701612040565b9150509250925092565b6000806000806080858703121561211f57600080fd5b600061212d87828801611f98565b945050602061213e87828801611f98565b935050604061214f87828801612040565b925050606085013567ffffffffffffffff81111561216c57600080fd5b61217887828801611fec565b91505092959194509250565b6000806040838503121561219757600080fd5b60006121a585828601611f98565b92505060206121b685828601611fad565b9150509250929050565b600080604083850312156121d357600080fd5b60006121e185828601611f98565b925050602083013567ffffffffffffffff8111156121fe57600080fd5b61220a85828601612016565b9150509250929050565b6000806040838503121561222757600080fd5b600061223585828601611f98565b925050602061224685828601612040565b9150509250929050565b60006020828403121561226257600080fd5b600061227084828501611fc2565b91505092915050565b60006020828403121561228b57600080fd5b600061229984828501611fd7565b91505092915050565b6000602082840312156122b457600080fd5b600082013567ffffffffffffffff8111156122ce57600080fd5b6122da84828501612016565b91505092915050565b6000602082840312156122f557600080fd5b600061230384828501612040565b91505092915050565b61231581612b97565b82525050565b61232481612ba9565b82525050565b600061233582612a99565b61233f8185612aaf565b935061234f818560208601612c1a565b61235881612de6565b840191505092915050565b600061236e82612aa4565b6123788185612ac0565b9350612388818560208601612c1a565b61239181612de6565b840191505092915050565b60006123a782612aa4565b6123b18185612ad1565b93506123c1818560208601612c1a565b80840191505092915050565b60006123da603283612ac0565b91506123e582612df7565b604082019050919050565b60006123fd602683612ac0565b915061240882612e46565b604082019050919050565b6000612420602583612ac0565b915061242b82612e95565b604082019050919050565b6000612443601c83612ac0565b915061244e82612ee4565b602082019050919050565b6000612466602483612ac0565b915061247182612f0d565b604082019050919050565b6000612489601983612ac0565b915061249482612f5c565b602082019050919050565b60006124ac602c83612ac0565b91506124b782612f85565b604082019050919050565b60006124cf603883612ac0565b91506124da82612fd4565b604082019050919050565b60006124f2602a83612ac0565b91506124fd82613023565b604082019050919050565b6000612515602983612ac0565b915061252082613072565b604082019050919050565b6000612538602e83612ac0565b9150612543826130c1565b604082019050919050565b600061255b602083612ac0565b915061256682613110565b602082019050919050565b600061257e603183612ac0565b915061258982613139565b604082019050919050565b60006125a1602c83612ac0565b91506125ac82613188565b604082019050919050565b60006125c4602083612ac0565b91506125cf826131d7565b602082019050919050565b60006125e7602f83612ac0565b91506125f282613200565b604082019050919050565b600061260a602183612ac0565b91506126158261324f565b604082019050919050565b600061262d603183612ac0565b91506126388261329e565b604082019050919050565b6000612650601383612ac0565b915061265b826132ed565b602082019050919050565b6000612673600f83612ac0565b915061267e82613316565b602082019050919050565b61269281612c01565b82525050565b60006126a4828461239c565b915081905092915050565b60006126bb828561239c565b91506126c7828461239c565b91508190509392505050565b60006020820190506126e8600083018461230c565b92915050565b6000608082019050612703600083018761230c565b612710602083018661230c565b61271d6040830185612689565b818103606083015261272f818461232a565b905095945050505050565b600060208201905061274f600083018461231b565b92915050565b6000602082019050818103600083015261276f8184612363565b905092915050565b60006020820190508181036000830152612790816123cd565b9050919050565b600060208201905081810360008301526127b0816123f0565b9050919050565b600060208201905081810360008301526127d081612413565b9050919050565b600060208201905081810360008301526127f081612436565b9050919050565b6000602082019050818103600083015261281081612459565b9050919050565b600060208201905081810360008301526128308161247c565b9050919050565b600060208201905081810360008301526128508161249f565b9050919050565b60006020820190508181036000830152612870816124c2565b9050919050565b60006020820190508181036000830152612890816124e5565b9050919050565b600060208201905081810360008301526128b081612508565b9050919050565b600060208201905081810360008301526128d08161252b565b9050919050565b600060208201905081810360008301526128f08161254e565b9050919050565b6000602082019050818103600083015261291081612571565b9050919050565b6000602082019050818103600083015261293081612594565b9050919050565b60006020820190508181036000830152612950816125b7565b9050919050565b60006020820190508181036000830152612970816125da565b9050919050565b60006020820190508181036000830152612990816125fd565b9050919050565b600060208201905081810360008301526129b081612620565b9050919050565b600060208201905081810360008301526129d081612643565b9050919050565b600060208201905081810360008301526129f081612666565b9050919050565b6000602082019050612a0c6000830184612689565b92915050565b6000612a1c612a2d565b9050612a288282612c7f565b919050565b6000604051905090565b600067ffffffffffffffff821115612a5257612a51612db7565b5b612a5b82612de6565b9050602081019050919050565b600067ffffffffffffffff821115612a8357612a82612db7565b5b612a8c82612de6565b9050602081019050919050565b600081519050919050565b600081519050919050565b600082825260208201905092915050565b600082825260208201905092915050565b600081905092915050565b6000612ae782612c01565b9150612af283612c01565b9250827fffffffffffffffffffffffffffffffffffffffffffffffffffffffffffffffff03821115612b2757612b26612d2a565b5b828201905092915050565b6000612b3d82612c01565b9150612b4883612c01565b925082612b5857612b57612d59565b5b828204905092915050565b6000612b6e82612c01565b9150612b7983612c01565b925082821015612b8c57612b8b612d2a565b5b828203905092915050565b6000612ba282612be1565b9050919050565b60008115159050919050565b60007fffffffff0000000000000000000000000000000000000000000000000000000082169050919050565b600073ffffffffffffffffffffffffffffffffffffffff82169050919050565b6000819050919050565b82818337600083830152505050565b60005b83811015612c38578082015181840152602081019050612c1d565b83811115612c47576000848401525b50505050565b60006002820490506001821680612c6557607f821691505b60208210811415612c7957612c78612d88565b5b50919050565b612c8882612de6565b810181811067ffffffffffffffff82111715612ca757612ca6612db7565b5b80604052505050565b6000612cbb82612c01565b91507fffffffffffffffffffffffffffffffffffffffffffffffffffffffffffffffff821415612cee57612ced612d2a565b5b600182019050919050565b6000612d0482612c01565b9150612d0f83612c01565b925082612d1f57612d1e612d59565b5b828206905092915050565b7f4e487b7100000000000000000000000000000000000000000000000000000000600052601160045260246000fd5b7f4e487b7100000000000000000000000000000000000000000000000000000000600052601260045260246000fd5b7f4e487b7100000000000000000000000000000000000000000000000000000000600052602260045260246000fd5b7f4e487b7100000000000000000000000000000000000000000000000000000000600052604160045260246000fd5b6000601f19601f8301169050919050565b7f4552433732313a207472616e7366657220746f206e6f6e20455243373231526560008201527f63656976657220696d706c656d656e7465720000000000000000000000000000602082015250565b7f4f776e61626c653a206e6577206f776e657220697320746865207a65726f206160008201527f6464726573730000000000000000000000000000000000000000000000000000602082015250565b7f4552433732313a207472616e736665722066726f6d20696e636f72726563742060008201527f6f776e6572000000000000000000000000000000000000000000000000000000602082015250565b7f4552433732313a20746f6b656e20616c7265616479206d696e74656400000000600082015250565b7f4552433732313a207472616e7366657220746f20746865207a65726f2061646460008201527f7265737300000000000000000000000000000000000000000000000000000000602082015250565b7f4552433732313a20617070726f766520746f2063616c6c657200000000000000600082015250565b7f4552433732313a206f70657261746f7220717565727920666f72206e6f6e657860008201527f697374656e7420746f6b656e0000000000000000000000000000000000000000602082015250565b7f4552433732313a20617070726f76652063616c6c6572206973206e6f74206f7760008201527f6e6572206e6f7220617070726f76656420666f7220616c6c0000000000000000602082015250565b7f4552433732313a2062616c616e636520717565727920666f7220746865207a6560008201527f726f206164647265737300000000000000000000000000000000000000000000602082015250565b7f4552433732313a206f776e657220717565727920666f72206e6f6e657869737460008201527f656e7420746f6b656e0000000000000000000000000000000000000000000000602082015250565b7f45524337323155524953746f726167653a2055524920736574206f66206e6f6e60008201527f6578697374656e7420746f6b656e000000000000000000000000000000000000602082015250565b7f4552433732313a206d696e7420746f20746865207a65726f2061646472657373600082015250565b7f45524337323155524953746f726167653a2055524920717565727920666f722060008201527f6e6f6e6578697374656e7420746f6b656e000000000000000000000000000000602082015250565b7f4552433732313a20617070726f76656420717565727920666f72206e6f6e657860008201527f697374656e7420746f6b656e0000000000000000000000000000000000000000602082015250565b7f4f776e61626c653a2063616c6c6572206973206e6f7420746865206f776e6572600082015250565b7f4552433732314d657461646174613a2055524920717565727920666f72206e6f60008201527f6e6578697374656e7420746f6b656e0000000000000000000000000000000000602082015250565b7f4552433732313a20617070726f76616c20746f2063757272656e74206f776e6560008201527f7200000000000000000000000000000000000000000000000000000000000000602082015250565b7f4552433732313a207472616e736665722063616c6c6572206973206e6f74206f60008201527f776e6572206e6f7220617070726f766564000000000000000000000000000000602082015250565b7f4e465420616c7265616479206d696e7465642100000000000000000000000000600082015250565b7f4e65656420746f20706179207570210000000000000000000000000000000000600082015250565b61334881612b97565b811461335357600080fd5b50565b61335f81612ba9565b811461336a57600080fd5b50565b61337681612bb5565b811461338157600080fd5b50565b61338d81612c01565b811461339857600080fd5b5056fea2646970667358221220e8eea8e41d2995558bdf97e252bd4051585a3a36afbf1f4e503bfaee0a1f674c64736f6c63430008010033",
  "linkReferences": {},
  "deployedLinkReferences": {}
}