{
  "_format": "hh-sol-artifact-1",
  "contractName": "Maxima",
  "sourceName": "contracts/Maxima.sol",
  "abi": [
    {
      "inputs": [],
      "stateMutability": "nonpayable",
      "type": "constructor"
    },
    {
      "anonymous": false,
      "inputs": [
        {
          "indexed": true,
          "internalType": "address",
          "name": "owner",
          "type": "address"
        },
        {
          "indexed": true,
          "internalType": "address",
          "name": "approved",
          "type": "address"
        },
        {
          "indexed": true,
          "internalType": "uint256",
          "name": "tokenId",
          "type": "uint256"
        }
      ],
      "name": "Approval",
      "type": "event"
    },
    {
      "anonymous": false,
      "inputs": [
        {
          "indexed": true,
          "internalType": "address",
          "name": "owner",
          "type": "address"
        },
        {
          "indexed": true,
          "internalType": "address",
          "name": "operator",
          "type": "address"
        },
        {
          "indexed": false,
          "internalType": "bool",
          "name": "approved",
          "type": "bool"
        }
      ],
      "name": "ApprovalForAll",
      "type": "event"
    },
    {
      "anonymous": false,
      "inputs": [
        {
          "indexed": false,
          "internalType": "address",
          "name": "sender",
          "type": "address"
        },
        {
          "indexed": false,
          "internalType": "uint256",
          "name": "tokenId",
          "type": "uint256"
        }
      ],
      "name": "NewWordleNFTMinted",
      "type": "event"
    },
    {
      "anonymous": false,
      "inputs": [
        {
          "indexed": true,
          "internalType": "address",
          "name": "previousOwner",
          "type": "address"
        },
        {
          "indexed": true,
          "internalType": "address",
          "name": "newOwner",
          "type": "address"
        }
      ],
      "name": "OwnershipTransferred",
      "type": "event"
    },
    {
      "anonymous": false,
      "inputs": [
        {
          "indexed": true,
          "internalType": "address",
          "name": "from",
          "type": "address"
        },
        {
          "indexed": true,
          "internalType": "address",
          "name": "to",
          "type": "address"
        },
        {
          "indexed": true,
          "internalType": "uint256",
          "name": "tokenId",
          "type": "uint256"
        }
      ],
      "name": "Transfer",
      "type": "event"
    },
    {
      "inputs": [
        {
          "internalType": "address",
          "name": "to",
          "type": "address"
        },
        {
          "internalType": "uint256",
          "name": "tokenId",
          "type": "uint256"
        }
      ],
      "name": "approve",
      "outputs": [],
      "stateMutability": "nonpayable",
      "type": "function"
    },
    {
      "inputs": [
        {
          "internalType": "address",
          "name": "owner",
          "type": "address"
        }
      ],
      "name": "balanceOf",
      "outputs": [
        {
          "internalType": "uint256",
          "name": "",
          "type": "uint256"
        }
      ],
      "stateMutability": "view",
      "type": "function"
    },
    {
      "inputs": [
        {
          "internalType": "uint256",
          "name": "tokenId",
          "type": "uint256"
        }
      ],
      "name": "getApproved",
      "outputs": [
        {
          "internalType": "address",
          "name": "",
          "type": "address"
        }
      ],
      "stateMutability": "view",
      "type": "function"
    },
    {
      "inputs": [
        {
          "internalType": "address",
          "name": "owner",
          "type": "address"
        },
        {
          "internalType": "address",
          "name": "operator",
          "type": "address"
        }
      ],
      "name": "isApprovedForAll",
      "outputs": [
        {
          "internalType": "bool",
          "name": "",
          "type": "bool"
        }
      ],
      "stateMutability": "view",
      "type": "function"
    },
    {
      "inputs": [
        {
          "internalType": "string",
          "name": "uri",
          "type": "string"
        }
      ],
      "name": "isContentOwned",
      "outputs": [
        {
          "internalType": "bool",
          "name": "",
          "type": "bool"
        }
      ],
      "stateMutability": "view",
      "type": "function"
    },
    {
      "inputs": [],
      "name": "name",
      "outputs": [
        {
          "internalType": "string",
          "name": "",
          "type": "string"
        }
      ],
      "stateMutability": "view",
      "type": "function"
    },
    {
      "inputs": [],
      "name": "owner",
      "outputs": [
        {
          "internalType": "address",
          "name": "",
          "type": "address"
        }
      ],
      "stateMutability": "view",
      "type": "function"
    },
    {
      "inputs": [
        {
          "internalType": "uint256",
          "name": "tokenId",
          "type": "uint256"
        }
      ],
      "name": "ownerOf",
      "outputs": [
        {
          "internalType": "address",
          "name": "",
          "type": "address"
        }
      ],
      "stateMutability": "view",
      "type": "function"
    },
    {
      "inputs": [
        {
          "internalType": "string",
          "name": "metadataURI",
          "type": "string"
        }
      ],
      "name": "payToMint",
      "outputs": [
        {
          "internalType": "uint256",
          "name": "",
          "type": "uint256"
        }
      ],
      "stateMutability": "payable",
      "type": "function"
    },
    {
      "inputs": [],
      "name": "renounceOwnership",
      "outputs": [],
      "stateMutability": "nonpayable",
      "type": "function"
    },
    {
      "inputs": [
        {
          "internalType": "address",
          "name": "from",
          "type": "address"
        },
        {
          "internalType": "address",
          "name": "to",
          "type": "address"
        },
        {
          "internalType": "uint256",
          "name": "tokenId",
          "type": "uint256"
        }
      ],
      "name": "safeTransferFrom",
      "outputs": [],
      "stateMutability": "nonpayable",
      "type": "function"
    },
    {
      "inputs": [
        {
          "internalType": "address",
          "name": "from",
          "type": "address"
        },
        {
          "internalType": "address",
          "name": "to",
          "type": "address"
        },
        {
          "internalType": "uint256",
          "name": "tokenId",
          "type": "uint256"
        },
        {
          "internalType": "bytes",
          "name": "_data",
          "type": "bytes"
        }
      ],
      "name": "safeTransferFrom",
      "outputs": [],
      "stateMutability": "nonpayable",
      "type": "function"
    },
    {
      "inputs": [
        {
          "internalType": "address",
          "name": "operator",
          "type": "address"
        },
        {
          "internalType": "bool",
          "name": "approved",
          "type": "bool"
        }
      ],
      "name": "setApprovalForAll",
      "outputs": [],
      "stateMutability": "nonpayable",
      "type": "function"
    },
    {
      "inputs": [
        {
          "internalType": "bytes4",
          "name": "interfaceId",
          "type": "bytes4"
        }
      ],
      "name": "supportsInterface",
      "outputs": [
        {
          "internalType": "bool",
          "name": "",
          "type": "bool"
        }
      ],
      "stateMutability": "view",
      "type": "function"
    },
    {
      "inputs": [],
      "name": "symbol",
      "outputs": [
        {
          "internalType": "string",
          "name": "",
          "type": "string"
        }
      ],
      "stateMutability": "view",
      "type": "function"
    },
    {
      "inputs": [
        {
          "internalType": "uint256",
          "name": "tokenId",
          "type": "uint256"
        }
      ],
      "name": "tokenURI",
      "outputs": [
        {
          "internalType": "string",
          "name": "",
          "type": "string"
        }
      ],
      "stateMutability": "view",
      "type": "function"
    },
    {
      "inputs": [
        {
          "internalType": "address",
          "name": "from",
          "type": "address"
        },
        {
          "internalType": "address",
          "name": "to",
          "type": "address"
        },
        {
          "internalType": "uint256",
          "name": "tokenId",
          "type": "uint256"
        }
      ],
      "name": "transferFrom",
      "outputs": [],
      "stateMutability": "nonpayable",
      "type": "function"
    },
    {
      "inputs": [
        {
          "internalType": "address",
          "name": "newOwner",
          "type": "address"
        }
      ],
      "name": "transferOwnership",
      "outputs": [],
      "stateMutability": "nonpayable",
      "type": "function"
    }
  ],
  "bytecode": "0x60806040523480156200001157600080fd5b506040518060400160405280600981526020017f576f72646c654e465400000000000000000000000000000000000000000000008152506040518060400160405280600681526020017f4d4158494d410000000000000000000000000000000000000000000000000000815250816000908051906020019062000096929190620002bd565b508060019080519060200190620000af929190620002bd565b505050620000d2620000c66200012360201b60201c565b6200012b60201b60201c565b6200011d6040518060400160405280601e81526020017f54686973206973206d79204e465420636f6e74726163742e20576f6168210000815250620001f160201b62000e321760201c565b6200049a565b600033905090565b6000600760009054906101000a900473ffffffffffffffffffffffffffffffffffffffff16905081600760006101000a81548173ffffffffffffffffffffffffffffffffffffffff021916908373ffffffffffffffffffffffffffffffffffffffff1602179055508173ffffffffffffffffffffffffffffffffffffffff168173ffffffffffffffffffffffffffffffffffffffff167f8be0079c531659141344cd1fd0a4f28419497f9722a3daafe3b4186f6b6457e060405160405180910390a35050565b6200029181604051602401620002089190620003ae565b6040516020818303038152906040527f41304fac000000000000000000000000000000000000000000000000000000007bffffffffffffffffffffffffffffffffffffffffffffffffffffffff19166020820180517bffffffffffffffffffffffffffffffffffffffffffffffffffffffff83818316178352505050506200029460201b60201c565b50565b60008151905060006a636f6e736f6c652e6c6f679050602083016000808483855afa5050505050565b828054620002cb9062000424565b90600052602060002090601f016020900481019282620002ef57600085556200033b565b82601f106200030a57805160ff19168380011785556200033b565b828001600101855582156200033b579182015b828111156200033a5782518255916020019190600101906200031d565b5b5090506200034a91906200034e565b5090565b5b80821115620003695760008160009055506001016200034f565b5090565b60006200037a82620003d2565b620003868185620003dd565b935062000398818560208601620003ee565b620003a38162000489565b840191505092915050565b60006020820190508181036000830152620003ca81846200036d565b905092915050565b600081519050919050565b600082825260208201905092915050565b60005b838110156200040e578082015181840152602081019050620003f1565b838111156200041e576000848401525b50505050565b600060028204905060018216806200043d57607f821691505b602082108114156200045457620004536200045a565b5b50919050565b7f4e487b7100000000000000000000000000000000000000000000000000000000600052602260045260246000fd5b6000601f19601f8301169050919050565b61337c80620004aa6000396000f3fe6080604052600436106101095760003560e01c8063715018a611610095578063a22cb46511610064578063a22cb46514610382578063b88d4fde146103ab578063c87b56dd146103d4578063e985e9c514610411578063f2fde38b1461044e57610109565b8063715018a6146102d85780638da5cb5b146102ef57806395d89b411461031a5780639f1cabc61461034557610109565b806323b872dd116100dc57806323b872dd146101dc57806342842e0e14610205578063537efe311461022e5780636352211e1461025e57806370a082311461029b57610109565b806301ffc9a71461010e57806306fdde031461014b578063081812fc14610176578063095ea7b3146101b3575b600080fd5b34801561011a57600080fd5b50610135600480360381019061013091906121fb565b610477565b60405161014291906126e5565b60405180910390f35b34801561015757600080fd5b50610160610559565b60405161016d9190612700565b60405180910390f35b34801561018257600080fd5b5061019d6004803603810190610198919061228e565b6105eb565b6040516101aa919061267e565b60405180910390f35b3480156101bf57600080fd5b506101da60048036038101906101d591906121bf565b610670565b005b3480156101e857600080fd5b5061020360048036038101906101fe91906120b9565b610788565b005b34801561021157600080fd5b5061022c600480360381019061022791906120b9565b6107e8565b005b6102486004803603810190610243919061224d565b610808565b60405161025591906129a2565b60405180910390f35b34801561026a57600080fd5b506102856004803603810190610280919061228e565b610933565b604051610292919061267e565b60405180910390f35b3480156102a757600080fd5b506102c260048036038101906102bd9190612054565b6109e5565b6040516102cf91906129a2565b60405180910390f35b3480156102e457600080fd5b506102ed610a9d565b005b3480156102fb57600080fd5b50610304610b25565b604051610311919061267e565b60405180910390f35b34801561032657600080fd5b5061032f610b4f565b60405161033c9190612700565b60405180910390f35b34801561035157600080fd5b5061036c6004803603810190610367919061224d565b610be1565b60405161037991906126e5565b60405180910390f35b34801561038e57600080fd5b506103a960048036038101906103a49190612183565b610c1c565b005b3480156103b757600080fd5b506103d260048036038101906103cd9190612108565b610c32565b005b3480156103e057600080fd5b506103fb60048036038101906103f6919061228e565b610c94565b6040516104089190612700565b60405180910390f35b34801561041d57600080fd5b506104386004803603810190610433919061207d565b610ca6565b60405161044591906126e5565b60405180910390f35b34801561045a57600080fd5b5061047560048036038101906104709190612054565b610d3a565b005b60007f80ac58cd000000000000000000000000000000000000000000000000000000007bffffffffffffffffffffffffffffffffffffffffffffffffffffffff1916827bffffffffffffffffffffffffffffffffffffffffffffffffffffffff1916148061054257507f5b5e139f000000000000000000000000000000000000000000000000000000007bffffffffffffffffffffffffffffffffffffffffffffffffffffffff1916827bffffffffffffffffffffffffffffffffffffffffffffffffffffffff1916145b80610552575061055182610ecb565b5b9050919050565b60606000805461056890612bf8565b80601f016020809104026020016040519081016040528092919081815260200182805461059490612bf8565b80156105e15780601f106105b6576101008083540402835291602001916105e1565b820191906000526020600020905b8154815290600101906020018083116105c457829003601f168201915b5050505050905090565b60006105f682610f35565b610635576040517f08c379a000000000000000000000000000000000000000000000000000000000815260040161062c906128c2565b60405180910390fd5b6004600083815260200190815260200160002060009054906101000a900473ffffffffffffffffffffffffffffffffffffffff169050919050565b600061067b82610933565b90508073ffffffffffffffffffffffffffffffffffffffff168373ffffffffffffffffffffffffffffffffffffffff1614156106ec576040517f08c379a00000000000000000000000000000000000000000000000000000000081526004016106e390612922565b60405180910390fd5b8073ffffffffffffffffffffffffffffffffffffffff1661070b610fa1565b73ffffffffffffffffffffffffffffffffffffffff16148061073a575061073981610734610fa1565b610ca6565b5b610779576040517f08c379a000000000000000000000000000000000000000000000000000000000815260040161077090612802565b60405180910390fd5b6107838383610fa9565b505050565b610799610793610fa1565b82611062565b6107d8576040517f08c379a00000000000000000000000000000000000000000000000000000000081526004016107cf90612942565b60405180910390fd5b6107e3838383611140565b505050565b61080383838360405180602001604052806000815250610c32565b505050565b6000600160098360405161081c9190612643565b908152602001604051809103902060009054906101000a900460ff1660ff16141561087c576040517f08c379a000000000000000000000000000000000000000000000000000000000815260040161087390612962565b60405180910390fd5b6601c6bf526340003410156108c6576040517f08c379a00000000000000000000000000000000000000000000000000000000081526004016108bd90612982565b60405180910390fd5b60006108d260086113a7565b90506108de60086113b5565b60016009846040516108f09190612643565b908152602001604051809103902060006101000a81548160ff021916908360ff16021790555061092033826113cb565b61092a81846115a5565b80915050919050565b6000806002600084815260200190815260200160002060009054906101000a900473ffffffffffffffffffffffffffffffffffffffff169050600073ffffffffffffffffffffffffffffffffffffffff168173ffffffffffffffffffffffffffffffffffffffff1614156109dc576040517f08c379a00000000000000000000000000000000000000000000000000000000081526004016109d390612842565b60405180910390fd5b80915050919050565b60008073ffffffffffffffffffffffffffffffffffffffff168273ffffffffffffffffffffffffffffffffffffffff161415610a56576040517f08c379a0000000000000000000000000000000000000000000000000000000008152600401610a4d90612822565b60405180910390fd5b600360008373ffffffffffffffffffffffffffffffffffffffff1673ffffffffffffffffffffffffffffffffffffffff168152602001908152602001600020549050919050565b610aa5610fa1565b73ffffffffffffffffffffffffffffffffffffffff16610ac3610b25565b73ffffffffffffffffffffffffffffffffffffffff1614610b19576040517f08c379a0000000000000000000000000000000000000000000000000000000008152600401610b10906128e2565b60405180910390fd5b610b236000611619565b565b6000600760009054906101000a900473ffffffffffffffffffffffffffffffffffffffff16905090565b606060018054610b5e90612bf8565b80601f0160208091040260200160405190810160405280929190818152602001828054610b8a90612bf8565b8015610bd75780601f10610bac57610100808354040283529160200191610bd7565b820191906000526020600020905b815481529060010190602001808311610bba57829003601f168201915b5050505050905090565b60006001600983604051610bf59190612643565b908152602001604051809103902060009054906101000a900460ff1660ff16149050919050565b610c2e610c27610fa1565b83836116df565b5050565b610c43610c3d610fa1565b83611062565b610c82576040517f08c379a0000000000000000000000000000000000000000000000000000000008152600401610c7990612942565b60405180910390fd5b610c8e8484848461184c565b50505050565b6060610c9f826118a8565b9050919050565b6000600560008473ffffffffffffffffffffffffffffffffffffffff1673ffffffffffffffffffffffffffffffffffffffff16815260200190815260200160002060008373ffffffffffffffffffffffffffffffffffffffff1673ffffffffffffffffffffffffffffffffffffffff16815260200190815260200160002060009054906101000a900460ff16905092915050565b610d42610fa1565b73ffffffffffffffffffffffffffffffffffffffff16610d60610b25565b73ffffffffffffffffffffffffffffffffffffffff1614610db6576040517f08c379a0000000000000000000000000000000000000000000000000000000008152600401610dad906128e2565b60405180910390fd5b600073ffffffffffffffffffffffffffffffffffffffff168173ffffffffffffffffffffffffffffffffffffffff161415610e26576040517f08c379a0000000000000000000000000000000000000000000000000000000008152600401610e1d90612742565b60405180910390fd5b610e2f81611619565b50565b610ec881604051602401610e469190612700565b6040516020818303038152906040527f41304fac000000000000000000000000000000000000000000000000000000007bffffffffffffffffffffffffffffffffffffffffffffffffffffffff19166020820180517bffffffffffffffffffffffffffffffffffffffffffffffffffffffff83818316178352505050506119fa565b50565b60007f01ffc9a7000000000000000000000000000000000000000000000000000000007bffffffffffffffffffffffffffffffffffffffffffffffffffffffff1916827bffffffffffffffffffffffffffffffffffffffffffffffffffffffff1916149050919050565b60008073ffffffffffffffffffffffffffffffffffffffff166002600084815260200190815260200160002060009054906101000a900473ffffffffffffffffffffffffffffffffffffffff1673ffffffffffffffffffffffffffffffffffffffff1614159050919050565b600033905090565b816004600083815260200190815260200160002060006101000a81548173ffffffffffffffffffffffffffffffffffffffff021916908373ffffffffffffffffffffffffffffffffffffffff160217905550808273ffffffffffffffffffffffffffffffffffffffff1661101c83610933565b73ffffffffffffffffffffffffffffffffffffffff167f8c5be1e5ebec7d5bd14f71427d1e84f3dd0314c0f7b2291e5b200ac8c7c3b92560405160405180910390a45050565b600061106d82610f35565b6110ac576040517f08c379a00000000000000000000000000000000000000000000000000000000081526004016110a3906127e2565b60405180910390fd5b60006110b783610933565b90508073ffffffffffffffffffffffffffffffffffffffff168473ffffffffffffffffffffffffffffffffffffffff16148061112657508373ffffffffffffffffffffffffffffffffffffffff1661110e846105eb565b73ffffffffffffffffffffffffffffffffffffffff16145b8061113757506111368185610ca6565b5b91505092915050565b8273ffffffffffffffffffffffffffffffffffffffff1661116082610933565b73ffffffffffffffffffffffffffffffffffffffff16146111b6576040517f08c379a00000000000000000000000000000000000000000000000000000000081526004016111ad90612762565b60405180910390fd5b600073ffffffffffffffffffffffffffffffffffffffff168273ffffffffffffffffffffffffffffffffffffffff161415611226576040517f08c379a000000000000000000000000000000000000000000000000000000000815260040161121d906127a2565b60405180910390fd5b611231838383611a23565b61123c600082610fa9565b6001600360008573ffffffffffffffffffffffffffffffffffffffff1673ffffffffffffffffffffffffffffffffffffffff168152602001908152602001600020600082825461128c9190612b0e565b925050819055506001600360008473ffffffffffffffffffffffffffffffffffffffff1673ffffffffffffffffffffffffffffffffffffffff16815260200190815260200160002060008282546112e39190612a87565b92505081905550816002600083815260200190815260200160002060006101000a81548173ffffffffffffffffffffffffffffffffffffffff021916908373ffffffffffffffffffffffffffffffffffffffff160217905550808273ffffffffffffffffffffffffffffffffffffffff168473ffffffffffffffffffffffffffffffffffffffff167fddf252ad1be2c89b69c2b068fc378daa952ba7f163c4a11628f55a4df523b3ef60405160405180910390a46113a2838383611a28565b505050565b600081600001549050919050565b6001816000016000828254019250508190555050565b600073ffffffffffffffffffffffffffffffffffffffff168273ffffffffffffffffffffffffffffffffffffffff16141561143b576040517f08c379a000000000000000000000000000000000000000000000000000000000815260040161143290612882565b60405180910390fd5b61144481610f35565b15611484576040517f08c379a000000000000000000000000000000000000000000000000000000000815260040161147b90612782565b60405180910390fd5b61149060008383611a23565b6001600360008473ffffffffffffffffffffffffffffffffffffffff1673ffffffffffffffffffffffffffffffffffffffff16815260200190815260200160002060008282546114e09190612a87565b92505081905550816002600083815260200190815260200160002060006101000a81548173ffffffffffffffffffffffffffffffffffffffff021916908373ffffffffffffffffffffffffffffffffffffffff160217905550808273ffffffffffffffffffffffffffffffffffffffff16600073ffffffffffffffffffffffffffffffffffffffff167fddf252ad1be2c89b69c2b068fc378daa952ba7f163c4a11628f55a4df523b3ef60405160405180910390a46115a160008383611a28565b5050565b6115ae82610f35565b6115ed576040517f08c379a00000000000000000000000000000000000000000000000000000000081526004016115e490612862565b60405180910390fd5b80600660008481526020019081526020016000209080519060200190611614929190611e78565b505050565b6000600760009054906101000a900473ffffffffffffffffffffffffffffffffffffffff16905081600760006101000a81548173ffffffffffffffffffffffffffffffffffffffff021916908373ffffffffffffffffffffffffffffffffffffffff1602179055508173ffffffffffffffffffffffffffffffffffffffff168173ffffffffffffffffffffffffffffffffffffffff167f8be0079c531659141344cd1fd0a4f28419497f9722a3daafe3b4186f6b6457e060405160405180910390a35050565b8173ffffffffffffffffffffffffffffffffffffffff168373ffffffffffffffffffffffffffffffffffffffff16141561174e576040517f08c379a0000000000000000000000000000000000000000000000000000000008152600401611745906127c2565b60405180910390fd5b80600560008573ffffffffffffffffffffffffffffffffffffffff1673ffffffffffffffffffffffffffffffffffffffff16815260200190815260200160002060008473ffffffffffffffffffffffffffffffffffffffff1673ffffffffffffffffffffffffffffffffffffffff16815260200190815260200160002060006101000a81548160ff0219169083151502179055508173ffffffffffffffffffffffffffffffffffffffff168373ffffffffffffffffffffffffffffffffffffffff167f17307eab39ab6107e8899845ad3d59bd9653f200f220920489ca2b5937696c318360405161183f91906126e5565b60405180910390a3505050565b611857848484611140565b61186384848484611a2d565b6118a2576040517f08c379a000000000000000000000000000000000000000000000000000000000815260040161189990612722565b60405180910390fd5b50505050565b60606118b382610f35565b6118f2576040517f08c379a00000000000000000000000000000000000000000000000000000000081526004016118e9906128a2565b60405180910390fd5b600060066000848152602001908152602001600020805461191290612bf8565b80601f016020809104026020016040519081016040528092919081815260200182805461193e90612bf8565b801561198b5780601f106119605761010080835404028352916020019161198b565b820191906000526020600020905b81548152906001019060200180831161196e57829003601f168201915b50505050509050600061199c611bc4565b90506000815114156119b25781925050506119f5565b6000825111156119e75780826040516020016119cf92919061265a565b604051602081830303815290604052925050506119f5565b6119f084611c01565b925050505b919050565b60008151905060006a636f6e736f6c652e6c6f679050602083016000808483855afa5050505050565b505050565b505050565b6000611a4e8473ffffffffffffffffffffffffffffffffffffffff16611ca8565b15611bb7578373ffffffffffffffffffffffffffffffffffffffff1663150b7a02611a77610fa1565b8786866040518563ffffffff1660e01b8152600401611a999493929190612699565b602060405180830381600087803b158015611ab357600080fd5b505af1925050508015611ae457506040513d601f19601f82011682018060405250810190611ae19190612224565b60015b611b67573d8060008114611b14576040519150601f19603f3d011682016040523d82523d6000602084013e611b19565b606091505b50600081511415611b5f576040517f08c379a0000000000000000000000000000000000000000000000000000000008152600401611b5690612722565b60405180910390fd5b805181602001fd5b63150b7a0260e01b7bffffffffffffffffffffffffffffffffffffffffffffffffffffffff1916817bffffffffffffffffffffffffffffffffffffffffffffffffffffffff191614915050611bbc565b600190505b949350505050565b60606040518060400160405280600781526020017f697066733a2f2f00000000000000000000000000000000000000000000000000815250905090565b6060611c0c82610f35565b611c4b576040517f08c379a0000000000000000000000000000000000000000000000000000000008152600401611c4290612902565b60405180910390fd5b6000611c55611bc4565b90506000815111611c755760405180602001604052806000815250611ca0565b80611c7f84611ccb565b604051602001611c9092919061265a565b6040516020818303038152906040525b915050919050565b6000808273ffffffffffffffffffffffffffffffffffffffff163b119050919050565b60606000821415611d13576040518060400160405280600181526020017f30000000000000000000000000000000000000000000000000000000000000008152509050611e73565b600082905060005b60008214611d45578080611d2e90612c5b565b915050600a82611d3e9190612add565b9150611d1b565b60008167ffffffffffffffff811115611d87577f4e487b7100000000000000000000000000000000000000000000000000000000600052604160045260246000fd5b6040519080825280601f01601f191660200182016040528015611db95781602001600182028036833780820191505090505b5090505b60008514611e6c57600182611dd29190612b0e565b9150600a85611de19190612ca4565b6030611ded9190612a87565b60f81b818381518110611e29577f4e487b7100000000000000000000000000000000000000000000000000000000600052603260045260246000fd5b60200101907effffffffffffffffffffffffffffffffffffffffffffffffffffffffffffff1916908160001a905350600a85611e659190612add565b9450611dbd565b8093505050505b919050565b828054611e8490612bf8565b90600052602060002090601f016020900481019282611ea65760008555611eed565b82601f10611ebf57805160ff1916838001178555611eed565b82800160010185558215611eed579182015b82811115611eec578251825591602001919060010190611ed1565b5b509050611efa9190611efe565b5090565b5b80821115611f17576000816000905550600101611eff565b5090565b6000611f2e611f29846129e2565b6129bd565b905082815260208101848484011115611f4657600080fd5b611f51848285612bb6565b509392505050565b6000611f6c611f6784612a13565b6129bd565b905082815260208101848484011115611f8457600080fd5b611f8f848285612bb6565b509392505050565b600081359050611fa6816132ea565b92915050565b600081359050611fbb81613301565b92915050565b600081359050611fd081613318565b92915050565b600081519050611fe581613318565b92915050565b600082601f830112611ffc57600080fd5b813561200c848260208601611f1b565b91505092915050565b600082601f83011261202657600080fd5b8135612036848260208601611f59565b91505092915050565b60008135905061204e8161332f565b92915050565b60006020828403121561206657600080fd5b600061207484828501611f97565b91505092915050565b6000806040838503121561209057600080fd5b600061209e85828601611f97565b92505060206120af85828601611f97565b9150509250929050565b6000806000606084860312156120ce57600080fd5b60006120dc86828701611f97565b93505060206120ed86828701611f97565b92505060406120fe8682870161203f565b9150509250925092565b6000806000806080858703121561211e57600080fd5b600061212c87828801611f97565b945050602061213d87828801611f97565b935050604061214e8782880161203f565b925050606085013567ffffffffffffffff81111561216b57600080fd5b61217787828801611feb565b91505092959194509250565b6000806040838503121561219657600080fd5b60006121a485828601611f97565b92505060206121b585828601611fac565b9150509250929050565b600080604083850312156121d257600080fd5b60006121e085828601611f97565b92505060206121f18582860161203f565b9150509250929050565b60006020828403121561220d57600080fd5b600061221b84828501611fc1565b91505092915050565b60006020828403121561223657600080fd5b600061224484828501611fd6565b91505092915050565b60006020828403121561225f57600080fd5b600082013567ffffffffffffffff81111561227957600080fd5b61228584828501612015565b91505092915050565b6000602082840312156122a057600080fd5b60006122ae8482850161203f565b91505092915050565b6122c081612b42565b82525050565b6122cf81612b54565b82525050565b60006122e082612a44565b6122ea8185612a5a565b93506122fa818560208601612bc5565b61230381612d91565b840191505092915050565b600061231982612a4f565b6123238185612a6b565b9350612333818560208601612bc5565b61233c81612d91565b840191505092915050565b600061235282612a4f565b61235c8185612a7c565b935061236c818560208601612bc5565b80840191505092915050565b6000612385603283612a6b565b915061239082612da2565b604082019050919050565b60006123a8602683612a6b565b91506123b382612df1565b604082019050919050565b60006123cb602583612a6b565b91506123d682612e40565b604082019050919050565b60006123ee601c83612a6b565b91506123f982612e8f565b602082019050919050565b6000612411602483612a6b565b915061241c82612eb8565b604082019050919050565b6000612434601983612a6b565b915061243f82612f07565b602082019050919050565b6000612457602c83612a6b565b915061246282612f30565b604082019050919050565b600061247a603883612a6b565b915061248582612f7f565b604082019050919050565b600061249d602a83612a6b565b91506124a882612fce565b604082019050919050565b60006124c0602983612a6b565b91506124cb8261301d565b604082019050919050565b60006124e3602e83612a6b565b91506124ee8261306c565b604082019050919050565b6000612506602083612a6b565b9150612511826130bb565b602082019050919050565b6000612529603183612a6b565b9150612534826130e4565b604082019050919050565b600061254c602c83612a6b565b915061255782613133565b604082019050919050565b600061256f602083612a6b565b915061257a82613182565b602082019050919050565b6000612592602f83612a6b565b915061259d826131ab565b604082019050919050565b60006125b5602183612a6b565b91506125c0826131fa565b604082019050919050565b60006125d8603183612a6b565b91506125e382613249565b604082019050919050565b60006125fb601383612a6b565b915061260682613298565b602082019050919050565b600061261e600f83612a6b565b9150612629826132c1565b602082019050919050565b61263d81612bac565b82525050565b600061264f8284612347565b915081905092915050565b60006126668285612347565b91506126728284612347565b91508190509392505050565b600060208201905061269360008301846122b7565b92915050565b60006080820190506126ae60008301876122b7565b6126bb60208301866122b7565b6126c86040830185612634565b81810360608301526126da81846122d5565b905095945050505050565b60006020820190506126fa60008301846122c6565b92915050565b6000602082019050818103600083015261271a818461230e565b905092915050565b6000602082019050818103600083015261273b81612378565b9050919050565b6000602082019050818103600083015261275b8161239b565b9050919050565b6000602082019050818103600083015261277b816123be565b9050919050565b6000602082019050818103600083015261279b816123e1565b9050919050565b600060208201905081810360008301526127bb81612404565b9050919050565b600060208201905081810360008301526127db81612427565b9050919050565b600060208201905081810360008301526127fb8161244a565b9050919050565b6000602082019050818103600083015261281b8161246d565b9050919050565b6000602082019050818103600083015261283b81612490565b9050919050565b6000602082019050818103600083015261285b816124b3565b9050919050565b6000602082019050818103600083015261287b816124d6565b9050919050565b6000602082019050818103600083015261289b816124f9565b9050919050565b600060208201905081810360008301526128bb8161251c565b9050919050565b600060208201905081810360008301526128db8161253f565b9050919050565b600060208201905081810360008301526128fb81612562565b9050919050565b6000602082019050818103600083015261291b81612585565b9050919050565b6000602082019050818103600083015261293b816125a8565b9050919050565b6000602082019050818103600083015261295b816125cb565b9050919050565b6000602082019050818103600083015261297b816125ee565b9050919050565b6000602082019050818103600083015261299b81612611565b9050919050565b60006020820190506129b76000830184612634565b92915050565b60006129c76129d8565b90506129d38282612c2a565b919050565b6000604051905090565b600067ffffffffffffffff8211156129fd576129fc612d62565b5b612a0682612d91565b9050602081019050919050565b600067ffffffffffffffff821115612a2e57612a2d612d62565b5b612a3782612d91565b9050602081019050919050565b600081519050919050565b600081519050919050565b600082825260208201905092915050565b600082825260208201905092915050565b600081905092915050565b6000612a9282612bac565b9150612a9d83612bac565b9250827fffffffffffffffffffffffffffffffffffffffffffffffffffffffffffffffff03821115612ad257612ad1612cd5565b5b828201905092915050565b6000612ae882612bac565b9150612af383612bac565b925082612b0357612b02612d04565b5b828204905092915050565b6000612b1982612bac565b9150612b2483612bac565b925082821015612b3757612b36612cd5565b5b828203905092915050565b6000612b4d82612b8c565b9050919050565b60008115159050919050565b60007fffffffff0000000000000000000000000000000000000000000000000000000082169050919050565b600073ffffffffffffffffffffffffffffffffffffffff82169050919050565b6000819050919050565b82818337600083830152505050565b60005b83811015612be3578082015181840152602081019050612bc8565b83811115612bf2576000848401525b50505050565b60006002820490506001821680612c1057607f821691505b60208210811415612c2457612c23612d33565b5b50919050565b612c3382612d91565b810181811067ffffffffffffffff82111715612c5257612c51612d62565b5b80604052505050565b6000612c6682612bac565b91507fffffffffffffffffffffffffffffffffffffffffffffffffffffffffffffffff821415612c9957612c98612cd5565b5b600182019050919050565b6000612caf82612bac565b9150612cba83612bac565b925082612cca57612cc9612d04565b5b828206905092915050565b7f4e487b7100000000000000000000000000000000000000000000000000000000600052601160045260246000fd5b7f4e487b7100000000000000000000000000000000000000000000000000000000600052601260045260246000fd5b7f4e487b7100000000000000000000000000000000000000000000000000000000600052602260045260246000fd5b7f4e487b7100000000000000000000000000000000000000000000000000000000600052604160045260246000fd5b6000601f19601f8301169050919050565b7f4552433732313a207472616e7366657220746f206e6f6e20455243373231526560008201527f63656976657220696d706c656d656e7465720000000000000000000000000000602082015250565b7f4f776e61626c653a206e6577206f776e657220697320746865207a65726f206160008201527f6464726573730000000000000000000000000000000000000000000000000000602082015250565b7f4552433732313a207472616e736665722066726f6d20696e636f72726563742060008201527f6f776e6572000000000000000000000000000000000000000000000000000000602082015250565b7f4552433732313a20746f6b656e20616c7265616479206d696e74656400000000600082015250565b7f4552433732313a207472616e7366657220746f20746865207a65726f2061646460008201527f7265737300000000000000000000000000000000000000000000000000000000602082015250565b7f4552433732313a20617070726f766520746f2063616c6c657200000000000000600082015250565b7f4552433732313a206f70657261746f7220717565727920666f72206e6f6e657860008201527f697374656e7420746f6b656e0000000000000000000000000000000000000000602082015250565b7f4552433732313a20617070726f76652063616c6c6572206973206e6f74206f7760008201527f6e6572206e6f7220617070726f76656420666f7220616c6c0000000000000000602082015250565b7f4552433732313a2062616c616e636520717565727920666f7220746865207a6560008201527f726f206164647265737300000000000000000000000000000000000000000000602082015250565b7f4552433732313a206f776e657220717565727920666f72206e6f6e657869737460008201527f656e7420746f6b656e0000000000000000000000000000000000000000000000602082015250565b7f45524337323155524953746f726167653a2055524920736574206f66206e6f6e60008201527f6578697374656e7420746f6b656e000000000000000000000000000000000000602082015250565b7f4552433732313a206d696e7420746f20746865207a65726f2061646472657373600082015250565b7f45524337323155524953746f726167653a2055524920717565727920666f722060008201527f6e6f6e6578697374656e7420746f6b656e000000000000000000000000000000602082015250565b7f4552433732313a20617070726f76656420717565727920666f72206e6f6e657860008201527f697374656e7420746f6b656e0000000000000000000000000000000000000000602082015250565b7f4f776e61626c653a2063616c6c6572206973206e6f7420746865206f776e6572600082015250565b7f4552433732314d657461646174613a2055524920717565727920666f72206e6f60008201527f6e6578697374656e7420746f6b656e0000000000000000000000000000000000602082015250565b7f4552433732313a20617070726f76616c20746f2063757272656e74206f776e6560008201527f7200000000000000000000000000000000000000000000000000000000000000602082015250565b7f4552433732313a207472616e736665722063616c6c6572206973206e6f74206f60008201527f776e6572206e6f7220617070726f766564000000000000000000000000000000602082015250565b7f4e465420616c7265616479206d696e7465642100000000000000000000000000600082015250565b7f4e65656420746f20706179207570210000000000000000000000000000000000600082015250565b6132f381612b42565b81146132fe57600080fd5b50565b61330a81612b54565b811461331557600080fd5b50565b61332181612b60565b811461332c57600080fd5b50565b61333881612bac565b811461334357600080fd5b5056fea2646970667358221220e0b3fb3c45841626a1c7c985f9e90c256a6f95ab0254b87678e1cb07ef2bb13564736f6c63430008010033",
  "linkReferences": {},
  "deployedLinkReferences": {}
}