{
    "_format": "hh-sol-artifact-1",
    "contractName": "Maxima",
    "sourceName": "contracts/Maxima.sol",
    "abi": [
        {
            "inputs": [],
            "stateMutability": "nonpayable",
            "type": "constructor"
        },
        {
            "anonymous": false,
            "inputs": [
                {
                    "indexed": true,
                    "internalType": "address",
                    "name": "owner",
                    "type": "address"
                },
                {
                    "indexed": true,
                    "internalType": "address",
                    "name": "approved",
                    "type": "address"
                },
                {
                    "indexed": true,
                    "internalType": "uint256",
                    "name": "tokenId",
                    "type": "uint256"
                }
            ],
            "name": "Approval",
            "type": "event"
        },
        {
            "anonymous": false,
            "inputs": [
                {
                    "indexed": true,
                    "internalType": "address",
                    "name": "owner",
                    "type": "address"
                },
                {
                    "indexed": true,
                    "internalType": "address",
                    "name": "operator",
                    "type": "address"
                },
                {
                    "indexed": false,
                    "internalType": "bool",
                    "name": "approved",
                    "type": "bool"
                }
            ],
            "name": "ApprovalForAll",
            "type": "event"
        },
        {
            "anonymous": false,
            "inputs": [
                {
                    "indexed": false,
                    "internalType": "address",
                    "name": "sender",
                    "type": "address"
                },
                {
                    "indexed": false,
                    "internalType": "uint256",
                    "name": "tokenId",
                    "type": "uint256"
                }
            ],
            "name": "NewWordleNFTMinted",
            "type": "event"
        },
        {
            "anonymous": false,
            "inputs": [
                {
                    "indexed": true,
                    "internalType": "address",
                    "name": "from",
                    "type": "address"
                },
                {
                    "indexed": true,
                    "internalType": "address",
                    "name": "to",
                    "type": "address"
                },
                {
                    "indexed": true,
                    "internalType": "uint256",
                    "name": "tokenId",
                    "type": "uint256"
                }
            ],
            "name": "Transfer",
            "type": "event"
        },
        {
            "inputs": [
                {
                    "internalType": "address",
                    "name": "to",
                    "type": "address"
                },
                {
                    "internalType": "uint256",
                    "name": "tokenId",
                    "type": "uint256"
                }
            ],
            "name": "approve",
            "outputs": [],
            "stateMutability": "nonpayable",
            "type": "function"
        },
        {
            "inputs": [
                {
                    "internalType": "address",
                    "name": "owner",
                    "type": "address"
                }
            ],
            "name": "balanceOf",
            "outputs": [
                {
                    "internalType": "uint256",
                    "name": "",
                    "type": "uint256"
                }
            ],
            "stateMutability": "view",
            "type": "function"
        },
        {
            "inputs": [
                {
                    "internalType": "uint256",
                    "name": "tokenId",
                    "type": "uint256"
                }
            ],
            "name": "getApproved",
            "outputs": [
                {
                    "internalType": "address",
                    "name": "",
                    "type": "address"
                }
            ],
            "stateMutability": "view",
            "type": "function"
        },
        {
            "inputs": [
                {
                    "internalType": "address",
                    "name": "owner",
                    "type": "address"
                },
                {
                    "internalType": "address",
                    "name": "operator",
                    "type": "address"
                }
            ],
            "name": "isApprovedForAll",
            "outputs": [
                {
                    "internalType": "bool",
                    "name": "",
                    "type": "bool"
                }
            ],
            "stateMutability": "view",
            "type": "function"
        },
        {
            "inputs": [],
            "name": "makeWordleNFT",
            "outputs": [],
            "stateMutability": "nonpayable",
            "type": "function"
        },
        {
            "inputs": [],
            "name": "name",
            "outputs": [
                {
                    "internalType": "string",
                    "name": "",
                    "type": "string"
                }
            ],
            "stateMutability": "view",
            "type": "function"
        },
        {
            "inputs": [
                {
                    "internalType": "uint256",
                    "name": "tokenId",
                    "type": "uint256"
                }
            ],
            "name": "ownerOf",
            "outputs": [
                {
                    "internalType": "address",
                    "name": "",
                    "type": "address"
                }
            ],
            "stateMutability": "view",
            "type": "function"
        },
        {
            "inputs": [
                {
                    "internalType": "address",
                    "name": "from",
                    "type": "address"
                },
                {
                    "internalType": "address",
                    "name": "to",
                    "type": "address"
                },
                {
                    "internalType": "uint256",
                    "name": "tokenId",
                    "type": "uint256"
                }
            ],
            "name": "safeTransferFrom",
            "outputs": [],
            "stateMutability": "nonpayable",
            "type": "function"
        },
        {
            "inputs": [
                {
                    "internalType": "address",
                    "name": "from",
                    "type": "address"
                },
                {
                    "internalType": "address",
                    "name": "to",
                    "type": "address"
                },
                {
                    "internalType": "uint256",
                    "name": "tokenId",
                    "type": "uint256"
                },
                {
                    "internalType": "bytes",
                    "name": "_data",
                    "type": "bytes"
                }
            ],
            "name": "safeTransferFrom",
            "outputs": [],
            "stateMutability": "nonpayable",
            "type": "function"
        },
        {
            "inputs": [
                {
                    "internalType": "address",
                    "name": "operator",
                    "type": "address"
                },
                {
                    "internalType": "bool",
                    "name": "approved",
                    "type": "bool"
                }
            ],
            "name": "setApprovalForAll",
            "outputs": [],
            "stateMutability": "nonpayable",
            "type": "function"
        },
        {
            "inputs": [
                {
                    "internalType": "bytes4",
                    "name": "interfaceId",
                    "type": "bytes4"
                }
            ],
            "name": "supportsInterface",
            "outputs": [
                {
                    "internalType": "bool",
                    "name": "",
                    "type": "bool"
                }
            ],
            "stateMutability": "view",
            "type": "function"
        },
        {
            "inputs": [],
            "name": "symbol",
            "outputs": [
                {
                    "internalType": "string",
                    "name": "",
                    "type": "string"
                }
            ],
            "stateMutability": "view",
            "type": "function"
        },
        {
            "inputs": [
                {
                    "internalType": "uint256",
                    "name": "tokenId",
                    "type": "uint256"
                }
            ],
            "name": "tokenURI",
            "outputs": [
                {
                    "internalType": "string",
                    "name": "",
                    "type": "string"
                }
            ],
            "stateMutability": "view",
            "type": "function"
        },
        {
            "inputs": [
                {
                    "internalType": "address",
                    "name": "from",
                    "type": "address"
                },
                {
                    "internalType": "address",
                    "name": "to",
                    "type": "address"
                },
                {
                    "internalType": "uint256",
                    "name": "tokenId",
                    "type": "uint256"
                }
            ],
            "name": "transferFrom",
            "outputs": [],
            "stateMutability": "nonpayable",
            "type": "function"
        }
    ],
    "bytecode": "0x608060405260405180610160016040528061012f8152602001620037af61012f9139600790805190602001906200003892919062000204565b503480156200004657600080fd5b506040518060400160405280600981526020017f576f72646c654e465400000000000000000000000000000000000000000000008152506040518060400160405280600681526020017f4d4158494d4100000000000000000000000000000000000000000000000000008152508160009080519060200190620000cb92919062000204565b508060019080519060200190620000e492919062000204565b505050620001326040518060400160405280601e81526020017f54686973206973206d79204e465420636f6e74726163742e20576f61682100008152506200013860201b62000c741760201c565b620003e1565b620001d8816040516024016200014f9190620002f5565b6040516020818303038152906040527f41304fac000000000000000000000000000000000000000000000000000000007bffffffffffffffffffffffffffffffffffffffffffffffffffffffff19166020820180517bffffffffffffffffffffffffffffffffffffffffffffffffffffffff8381831617835250505050620001db60201b60201c565b50565b60008151905060006a636f6e736f6c652e6c6f679050602083016000808483855afa5050505050565b82805462000212906200036b565b90600052602060002090601f01602090048101928262000236576000855562000282565b82601f106200025157805160ff191683800117855562000282565b8280016001018555821562000282579182015b828111156200028157825182559160200191906001019062000264565b5b50905062000291919062000295565b5090565b5b80821115620002b057600081600090555060010162000296565b5090565b6000620002c18262000319565b620002cd818562000324565b9350620002df81856020860162000335565b620002ea81620003d0565b840191505092915050565b60006020820190508181036000830152620003118184620002b4565b905092915050565b600081519050919050565b600082825260208201905092915050565b60005b838110156200035557808201518184015260208101905062000338565b8381111562000365576000848401525b50505050565b600060028204905060018216806200038457607f821691505b602082108114156200039b576200039a620003a1565b5b50919050565b7f4e487b7100000000000000000000000000000000000000000000000000000000600052602260045260246000fd5b6000601f19601f8301169050919050565b6133be80620003f16000396000f3fe608060405234801561001057600080fd5b50600436106100ea5760003560e01c806370a082311161008c578063a9444d1511610066578063a9444d151461025b578063b88d4fde14610265578063c87b56dd14610281578063e985e9c5146102b1576100ea565b806370a08231146101f157806395d89b4114610221578063a22cb4651461023f576100ea565b8063095ea7b3116100c8578063095ea7b31461016d57806323b872dd1461018957806342842e0e146101a55780636352211e146101c1576100ea565b806301ffc9a7146100ef57806306fdde031461011f578063081812fc1461013d575b600080fd5b6101096004803603810190610104919061206d565b6102e1565b6040516101169190612651565b60405180910390f35b6101276103c3565b604051610134919061266c565b60405180910390f35b610157600480360381019061015291906120bf565b610455565b60405161016491906125ea565b60405180910390f35b61018760048036038101906101829190612031565b6104da565b005b6101a3600480360381019061019e9190611f2b565b6105f2565b005b6101bf60048036038101906101ba9190611f2b565b610652565b005b6101db60048036038101906101d691906120bf565b610672565b6040516101e891906125ea565b60405180910390f35b61020b60048036038101906102069190611ec6565b610724565b60405161021891906128cc565b60405180910390f35b6102296107dc565b604051610236919061266c565b60405180910390f35b61025960048036038101906102549190611ff5565b61086e565b005b610263610884565b005b61027f600480360381019061027a9190611f7a565b610a2c565b005b61029b600480360381019061029691906120bf565b610a8e565b6040516102a8919061266c565b60405180910390f35b6102cb60048036038101906102c69190611eef565b610be0565b6040516102d89190612651565b60405180910390f35b60007f80ac58cd000000000000000000000000000000000000000000000000000000007bffffffffffffffffffffffffffffffffffffffffffffffffffffffff1916827bffffffffffffffffffffffffffffffffffffffffffffffffffffffff191614806103ac57507f5b5e139f000000000000000000000000000000000000000000000000000000007bffffffffffffffffffffffffffffffffffffffffffffffffffffffff1916827bffffffffffffffffffffffffffffffffffffffffffffffffffffffff1916145b806103bc57506103bb82610d0d565b5b9050919050565b6060600080546103d290612b60565b80601f01602080910402602001604051908101604052809291908181526020018280546103fe90612b60565b801561044b5780601f106104205761010080835404028352916020019161044b565b820191906000526020600020905b81548152906001019060200180831161042e57829003601f168201915b5050505050905090565b600061046082610d77565b61049f576040517f08c379a00000000000000000000000000000000000000000000000000000000081526004016104969061284c565b60405180910390fd5b6004600083815260200190815260200160002060009054906101000a900473ffffffffffffffffffffffffffffffffffffffff169050919050565b60006104e582610672565b90508073ffffffffffffffffffffffffffffffffffffffff168373ffffffffffffffffffffffffffffffffffffffff161415610556576040517f08c379a000000000000000000000000000000000000000000000000000000000815260040161054d9061288c565b60405180910390fd5b8073ffffffffffffffffffffffffffffffffffffffff16610575610de3565b73ffffffffffffffffffffffffffffffffffffffff1614806105a457506105a38161059e610de3565b610be0565b5b6105e3576040517f08c379a00000000000000000000000000000000000000000000000000000000081526004016105da9061278c565b60405180910390fd5b6105ed8383610deb565b505050565b6106036105fd610de3565b82610ea4565b610642576040517f08c379a0000000000000000000000000000000000000000000000000000000008152600401610639906128ac565b60405180910390fd5b61064d838383610f82565b505050565b61066d83838360405180602001604052806000815250610a2c565b505050565b6000806002600084815260200190815260200160002060009054906101000a900473ffffffffffffffffffffffffffffffffffffffff169050600073ffffffffffffffffffffffffffffffffffffffff168173ffffffffffffffffffffffffffffffffffffffff16141561071b576040517f08c379a0000000000000000000000000000000000000000000000000000000008152600401610712906127cc565b60405180910390fd5b80915050919050565b60008073ffffffffffffffffffffffffffffffffffffffff168273ffffffffffffffffffffffffffffffffffffffff161415610795576040517f08c379a000000000000000000000000000000000000000000000000000000000815260040161078c906127ac565b60405180910390fd5b600360008373ffffffffffffffffffffffffffffffffffffffff1673ffffffffffffffffffffffffffffffffffffffff168152602001908152602001600020549050919050565b6060600180546107eb90612b60565b80601f016020809104026020016040519081016040528092919081815260200182805461081790612b60565b80156108645780601f1061083957610100808354040283529160200191610864565b820191906000526020600020905b81548152906001019060200180831161084757829003601f168201915b5050505050905090565b610880610879610de3565b83836111e9565b5050565b60006108906008611356565b905060006040518060400160405280600c81526020017f576f72646c65204e465420230000000000000000000000000000000000000000815250905060006108d783611364565b90506000600783836040516020016108f19392919061253a565b60405160208183030381529060405290506000610938848461091285611511565b60405160200161092493929190612576565b604051602081830303815290604052611511565b905060008160405160200161094d91906125c8565b604051602081830303815290604052905061099c6040518060400160405280601581526020017f0a2d2d2d2d2d2d2d2d2d2d2d2d2d2d2d2d2d2d2d2d0000000000000000000000815250610c74565b6109a581610c74565b6109e36040518060400160405280601581526020017f2d2d2d2d2d2d2d2d2d2d2d2d2d2d2d2d2d2d2d2d0a0000000000000000000000815250610c74565b6109ed33876116cf565b6109f786826116ed565b610a016008611761565b610a24604051806060016040528060258152602001613324602591398733611777565b505050505050565b610a3d610a37610de3565b83610ea4565b610a7c576040517f08c379a0000000000000000000000000000000000000000000000000000000008152600401610a73906128ac565b60405180910390fd5b610a8884848484611816565b50505050565b6060610a9982610d77565b610ad8576040517f08c379a0000000000000000000000000000000000000000000000000000000008152600401610acf9061282c565b60405180910390fd5b6000600660008481526020019081526020016000208054610af890612b60565b80601f0160208091040260200160405190810160405280929190818152602001828054610b2490612b60565b8015610b715780601f10610b4657610100808354040283529160200191610b71565b820191906000526020600020905b815481529060010190602001808311610b5457829003601f168201915b505050505090506000610b82611872565b9050600081511415610b98578192505050610bdb565b600082511115610bcd578082604051602001610bb5929190612516565b60405160208183030381529060405292505050610bdb565b610bd684611889565b925050505b919050565b6000600560008473ffffffffffffffffffffffffffffffffffffffff1673ffffffffffffffffffffffffffffffffffffffff16815260200190815260200160002060008373ffffffffffffffffffffffffffffffffffffffff1673ffffffffffffffffffffffffffffffffffffffff16815260200190815260200160002060009054906101000a900460ff16905092915050565b610d0a81604051602401610c88919061266c565b6040516020818303038152906040527f41304fac000000000000000000000000000000000000000000000000000000007bffffffffffffffffffffffffffffffffffffffffffffffffffffffff19166020820180517bffffffffffffffffffffffffffffffffffffffffffffffffffffffff8381831617835250505050611930565b50565b60007f01ffc9a7000000000000000000000000000000000000000000000000000000007bffffffffffffffffffffffffffffffffffffffffffffffffffffffff1916827bffffffffffffffffffffffffffffffffffffffffffffffffffffffff1916149050919050565b60008073ffffffffffffffffffffffffffffffffffffffff166002600084815260200190815260200160002060009054906101000a900473ffffffffffffffffffffffffffffffffffffffff1673ffffffffffffffffffffffffffffffffffffffff1614159050919050565b600033905090565b816004600083815260200190815260200160002060006101000a81548173ffffffffffffffffffffffffffffffffffffffff021916908373ffffffffffffffffffffffffffffffffffffffff160217905550808273ffffffffffffffffffffffffffffffffffffffff16610e5e83610672565b73ffffffffffffffffffffffffffffffffffffffff167f8c5be1e5ebec7d5bd14f71427d1e84f3dd0314c0f7b2291e5b200ac8c7c3b92560405160405180910390a45050565b6000610eaf82610d77565b610eee576040517f08c379a0000000000000000000000000000000000000000000000000000000008152600401610ee59061276c565b60405180910390fd5b6000610ef983610672565b90508073ffffffffffffffffffffffffffffffffffffffff168473ffffffffffffffffffffffffffffffffffffffff161480610f6857508373ffffffffffffffffffffffffffffffffffffffff16610f5084610455565b73ffffffffffffffffffffffffffffffffffffffff16145b80610f795750610f788185610be0565b5b91505092915050565b8273ffffffffffffffffffffffffffffffffffffffff16610fa282610672565b73ffffffffffffffffffffffffffffffffffffffff1614610ff8576040517f08c379a0000000000000000000000000000000000000000000000000000000008152600401610fef906126ec565b60405180910390fd5b600073ffffffffffffffffffffffffffffffffffffffff168273ffffffffffffffffffffffffffffffffffffffff161415611068576040517f08c379a000000000000000000000000000000000000000000000000000000000815260040161105f9061272c565b60405180910390fd5b611073838383611959565b61107e600082610deb565b6001600360008573ffffffffffffffffffffffffffffffffffffffff1673ffffffffffffffffffffffffffffffffffffffff16815260200190815260200160002060008282546110ce9190612a76565b925050819055506001600360008473ffffffffffffffffffffffffffffffffffffffff1673ffffffffffffffffffffffffffffffffffffffff16815260200190815260200160002060008282546111259190612995565b92505081905550816002600083815260200190815260200160002060006101000a81548173ffffffffffffffffffffffffffffffffffffffff021916908373ffffffffffffffffffffffffffffffffffffffff160217905550808273ffffffffffffffffffffffffffffffffffffffff168473ffffffffffffffffffffffffffffffffffffffff167fddf252ad1be2c89b69c2b068fc378daa952ba7f163c4a11628f55a4df523b3ef60405160405180910390a46111e483838361195e565b505050565b8173ffffffffffffffffffffffffffffffffffffffff168373ffffffffffffffffffffffffffffffffffffffff161415611258576040517f08c379a000000000000000000000000000000000000000000000000000000000815260040161124f9061274c565b60405180910390fd5b80600560008573ffffffffffffffffffffffffffffffffffffffff1673ffffffffffffffffffffffffffffffffffffffff16815260200190815260200160002060008473ffffffffffffffffffffffffffffffffffffffff1673ffffffffffffffffffffffffffffffffffffffff16815260200190815260200160002060006101000a81548160ff0219169083151502179055508173ffffffffffffffffffffffffffffffffffffffff168373ffffffffffffffffffffffffffffffffffffffff167f17307eab39ab6107e8899845ad3d59bd9653f200f220920489ca2b5937696c31836040516113499190612651565b60405180910390a3505050565b600081600001549050919050565b606060008214156113ac576040518060400160405280600181526020017f3000000000000000000000000000000000000000000000000000000000000000815250905061150c565b600082905060005b600082146113de5780806113c790612bc3565b915050600a826113d791906129eb565b91506113b4565b60008167ffffffffffffffff811115611420577f4e487b7100000000000000000000000000000000000000000000000000000000600052604160045260246000fd5b6040519080825280601f01601f1916602001820160405280156114525781602001600182028036833780820191505090505b5090505b600085146115055760018261146b9190612a76565b9150600a8561147a9190612c0c565b60306114869190612995565b60f81b8183815181106114c2577f4e487b7100000000000000000000000000000000000000000000000000000000600052603260045260246000fd5b60200101907effffffffffffffffffffffffffffffffffffffffffffffffffffffffffffff1916908160001a905350600a856114fe91906129eb565b9450611456565b8093505050505b919050565b6060600082519050600081141561153a57604051806020016040528060008152509150506116ca565b6000600360028361154b9190612995565b61155591906129eb565b60046115619190612a1c565b905060006020826115729190612995565b67ffffffffffffffff8111156115b1577f4e487b7100000000000000000000000000000000000000000000000000000000600052604160045260246000fd5b6040519080825280601f01601f1916602001820160405280156115e35781602001600182028036833780820191505090505b5090506000604051806060016040528060408152602001613349604091399050600181016020830160005b868110156116875760038101905062ffffff818a015116603f8160121c168401518060081b905060ff603f83600c1c1686015116810190508060081b905060ff603f8360061c1686015116810190508060081b905060ff603f831686015116810190508060e01b9050808452600484019350505061160e565b5060038606600181146116a157600281146116b1576116bc565b613d3d60f01b60028303526116bc565b603d60f81b60018303525b508484525050819450505050505b919050565b6116e9828260405180602001604052806000815250611963565b5050565b6116f682610d77565b611735576040517f08c379a000000000000000000000000000000000000000000000000000000000815260040161172c906127ec565b60405180910390fd5b8060066000848152602001908152602001600020908051906020019061175c929190611d52565b505050565b6001816000016000828254019250508190555050565b61181183838360405160240161178f9392919061268e565b6040516020818303038152906040527fe3849f79000000000000000000000000000000000000000000000000000000007bffffffffffffffffffffffffffffffffffffffffffffffffffffffff19166020820180517bffffffffffffffffffffffffffffffffffffffffffffffffffffffff8381831617835250505050611930565b505050565b611821848484610f82565b61182d848484846119be565b61186c576040517f08c379a0000000000000000000000000000000000000000000000000000000008152600401611863906126cc565b60405180910390fd5b50505050565b606060405180602001604052806000815250905090565b606061189482610d77565b6118d3576040517f08c379a00000000000000000000000000000000000000000000000000000000081526004016118ca9061286c565b60405180910390fd5b60006118dd611872565b905060008151116118fd5760405180602001604052806000815250611928565b8061190784611364565b604051602001611918929190612516565b6040516020818303038152906040525b915050919050565b60008151905060006a636f6e736f6c652e6c6f679050602083016000808483855afa5050505050565b505050565b505050565b61196d8383611b55565b61197a60008484846119be565b6119b9576040517f08c379a00000000000000000000000000000000000000000000000000000000081526004016119b0906126cc565b60405180910390fd5b505050565b60006119df8473ffffffffffffffffffffffffffffffffffffffff16611d2f565b15611b48578373ffffffffffffffffffffffffffffffffffffffff1663150b7a02611a08610de3565b8786866040518563ffffffff1660e01b8152600401611a2a9493929190612605565b602060405180830381600087803b158015611a4457600080fd5b505af1925050508015611a7557506040513d601f19601f82011682018060405250810190611a729190612096565b60015b611af8573d8060008114611aa5576040519150601f19603f3d011682016040523d82523d6000602084013e611aaa565b606091505b50600081511415611af0576040517f08c379a0000000000000000000000000000000000000000000000000000000008152600401611ae7906126cc565b60405180910390fd5b805181602001fd5b63150b7a0260e01b7bffffffffffffffffffffffffffffffffffffffffffffffffffffffff1916817bffffffffffffffffffffffffffffffffffffffffffffffffffffffff191614915050611b4d565b600190505b949350505050565b600073ffffffffffffffffffffffffffffffffffffffff168273ffffffffffffffffffffffffffffffffffffffff161415611bc5576040517f08c379a0000000000000000000000000000000000000000000000000000000008152600401611bbc9061280c565b60405180910390fd5b611bce81610d77565b15611c0e576040517f08c379a0000000000000000000000000000000000000000000000000000000008152600401611c059061270c565b60405180910390fd5b611c1a60008383611959565b6001600360008473ffffffffffffffffffffffffffffffffffffffff1673ffffffffffffffffffffffffffffffffffffffff1681526020019081526020016000206000828254611c6a9190612995565b92505081905550816002600083815260200190815260200160002060006101000a81548173ffffffffffffffffffffffffffffffffffffffff021916908373ffffffffffffffffffffffffffffffffffffffff160217905550808273ffffffffffffffffffffffffffffffffffffffff16600073ffffffffffffffffffffffffffffffffffffffff167fddf252ad1be2c89b69c2b068fc378daa952ba7f163c4a11628f55a4df523b3ef60405160405180910390a4611d2b6000838361195e565b5050565b6000808273ffffffffffffffffffffffffffffffffffffffff163b119050919050565b828054611d5e90612b60565b90600052602060002090601f016020900481019282611d805760008555611dc7565b82601f10611d9957805160ff1916838001178555611dc7565b82800160010185558215611dc7579182015b82811115611dc6578251825591602001919060010190611dab565b5b509050611dd49190611dd8565b5090565b5b80821115611df1576000816000905550600101611dd9565b5090565b6000611e08611e038461290c565b6128e7565b905082815260208101848484011115611e2057600080fd5b611e2b848285612b1e565b509392505050565b600081359050611e42816132c7565b92915050565b600081359050611e57816132de565b92915050565b600081359050611e6c816132f5565b92915050565b600081519050611e81816132f5565b92915050565b600082601f830112611e9857600080fd5b8135611ea8848260208601611df5565b91505092915050565b600081359050611ec08161330c565b92915050565b600060208284031215611ed857600080fd5b6000611ee684828501611e33565b91505092915050565b60008060408385031215611f0257600080fd5b6000611f1085828601611e33565b9250506020611f2185828601611e33565b9150509250929050565b600080600060608486031215611f4057600080fd5b6000611f4e86828701611e33565b9350506020611f5f86828701611e33565b9250506040611f7086828701611eb1565b9150509250925092565b60008060008060808587031215611f9057600080fd5b6000611f9e87828801611e33565b9450506020611faf87828801611e33565b9350506040611fc087828801611eb1565b925050606085013567ffffffffffffffff811115611fdd57600080fd5b611fe987828801611e87565b91505092959194509250565b6000806040838503121561200857600080fd5b600061201685828601611e33565b925050602061202785828601611e48565b9150509250929050565b6000806040838503121561204457600080fd5b600061205285828601611e33565b925050602061206385828601611eb1565b9150509250929050565b60006020828403121561207f57600080fd5b600061208d84828501611e5d565b91505092915050565b6000602082840312156120a857600080fd5b60006120b684828501611e72565b91505092915050565b6000602082840312156120d157600080fd5b60006120df84828501611eb1565b91505092915050565b6120f181612aaa565b82525050565b61210081612abc565b82525050565b600061211182612952565b61211b8185612968565b935061212b818560208601612b2d565b61213481612cf9565b840191505092915050565b600061214a8261295d565b6121548185612979565b9350612164818560208601612b2d565b61216d81612cf9565b840191505092915050565b60006121838261295d565b61218d818561298a565b935061219d818560208601612b2d565b80840191505092915050565b600081546121b681612b60565b6121c0818661298a565b945060018216600081146121db57600181146121ec5761221f565b60ff1983168652818601935061221f565b6121f58561293d565b60005b83811015612217578154818901526001820191506020810190506121f8565b838801955050505b50505092915050565b6000612235603283612979565b915061224082612d0a565b604082019050919050565b6000612258602583612979565b915061226382612d59565b604082019050919050565b600061227b601c83612979565b915061228682612da8565b602082019050919050565b600061229e602483612979565b91506122a982612dd1565b604082019050919050565b60006122c1601983612979565b91506122cc82612e20565b602082019050919050565b60006122e4602c83612979565b91506122ef82612e49565b604082019050919050565b6000612307600d8361298a565b915061231282612e98565b600d82019050919050565b600061232a603883612979565b915061233582612ec1565b604082019050919050565b600061234d602a83612979565b915061235882612f10565b604082019050919050565b6000612370602983612979565b915061237b82612f5f565b604082019050919050565b6000612393602e83612979565b915061239e82612fae565b604082019050919050565b60006123b660028361298a565b91506123c182612ffd565b600282019050919050565b60006123d9602083612979565b91506123e482613026565b602082019050919050565b60006123fc603183612979565b91506124078261304f565b604082019050919050565b600061241f602c83612979565b915061242a8261309e565b604082019050919050565b600061244260658361298a565b915061244d826130ed565b606582019050919050565b6000612465602f83612979565b915061247082613188565b604082019050919050565b6000612488600a8361298a565b9150612493826131d7565b600a82019050919050565b60006124ab602183612979565b91506124b682613200565b604082019050919050565b60006124ce601d8361298a565b91506124d98261324f565b601d82019050919050565b60006124f1603183612979565b91506124fc82613278565b604082019050919050565b61251081612b14565b82525050565b60006125228285612178565b915061252e8284612178565b91508190509392505050565b600061254682866121a9565b91506125528285612178565b915061255e8284612178565b9150612569826122fa565b9150819050949350505050565b60006125818261247b565b915061258d8286612178565b91506125998285612178565b91506125a482612435565b91506125b08284612178565b91506125bb826123a9565b9150819050949350505050565b60006125d3826124c1565b91506125df8284612178565b915081905092915050565b60006020820190506125ff60008301846120e8565b92915050565b600060808201905061261a60008301876120e8565b61262760208301866120e8565b6126346040830185612507565b81810360608301526126468184612106565b905095945050505050565b600060208201905061266660008301846120f7565b92915050565b60006020820190508181036000830152612686818461213f565b905092915050565b600060608201905081810360008301526126a8818661213f565b90506126b76020830185612507565b6126c460408301846120e8565b949350505050565b600060208201905081810360008301526126e581612228565b9050919050565b600060208201905081810360008301526127058161224b565b9050919050565b600060208201905081810360008301526127258161226e565b9050919050565b6000602082019050818103600083015261274581612291565b9050919050565b60006020820190508181036000830152612765816122b4565b9050919050565b60006020820190508181036000830152612785816122d7565b9050919050565b600060208201905081810360008301526127a58161231d565b9050919050565b600060208201905081810360008301526127c581612340565b9050919050565b600060208201905081810360008301526127e581612363565b9050919050565b6000602082019050818103600083015261280581612386565b9050919050565b60006020820190508181036000830152612825816123cc565b9050919050565b60006020820190508181036000830152612845816123ef565b9050919050565b6000602082019050818103600083015261286581612412565b9050919050565b6000602082019050818103600083015261288581612458565b9050919050565b600060208201905081810360008301526128a58161249e565b9050919050565b600060208201905081810360008301526128c5816124e4565b9050919050565b60006020820190506128e16000830184612507565b92915050565b60006128f1612902565b90506128fd8282612b92565b919050565b6000604051905090565b600067ffffffffffffffff82111561292757612926612cca565b5b61293082612cf9565b9050602081019050919050565b60008190508160005260206000209050919050565b600081519050919050565b600081519050919050565b600082825260208201905092915050565b600082825260208201905092915050565b600081905092915050565b60006129a082612b14565b91506129ab83612b14565b9250827fffffffffffffffffffffffffffffffffffffffffffffffffffffffffffffffff038211156129e0576129df612c3d565b5b828201905092915050565b60006129f682612b14565b9150612a0183612b14565b925082612a1157612a10612c6c565b5b828204905092915050565b6000612a2782612b14565b9150612a3283612b14565b9250817fffffffffffffffffffffffffffffffffffffffffffffffffffffffffffffffff0483118215151615612a6b57612a6a612c3d565b5b828202905092915050565b6000612a8182612b14565b9150612a8c83612b14565b925082821015612a9f57612a9e612c3d565b5b828203905092915050565b6000612ab582612af4565b9050919050565b60008115159050919050565b60007fffffffff0000000000000000000000000000000000000000000000000000000082169050919050565b600073ffffffffffffffffffffffffffffffffffffffff82169050919050565b6000819050919050565b82818337600083830152505050565b60005b83811015612b4b578082015181840152602081019050612b30565b83811115612b5a576000848401525b50505050565b60006002820490506001821680612b7857607f821691505b60208210811415612b8c57612b8b612c9b565b5b50919050565b612b9b82612cf9565b810181811067ffffffffffffffff82111715612bba57612bb9612cca565b5b80604052505050565b6000612bce82612b14565b91507fffffffffffffffffffffffffffffffffffffffffffffffffffffffffffffffff821415612c0157612c00612c3d565b5b600182019050919050565b6000612c1782612b14565b9150612c2283612b14565b925082612c3257612c31612c6c565b5b828206905092915050565b7f4e487b7100000000000000000000000000000000000000000000000000000000600052601160045260246000fd5b7f4e487b7100000000000000000000000000000000000000000000000000000000600052601260045260246000fd5b7f4e487b7100000000000000000000000000000000000000000000000000000000600052602260045260246000fd5b7f4e487b7100000000000000000000000000000000000000000000000000000000600052604160045260246000fd5b6000601f19601f8301169050919050565b7f4552433732313a207472616e7366657220746f206e6f6e20455243373231526560008201527f63656976657220696d706c656d656e7465720000000000000000000000000000602082015250565b7f4552433732313a207472616e736665722066726f6d20696e636f72726563742060008201527f6f776e6572000000000000000000000000000000000000000000000000000000602082015250565b7f4552433732313a20746f6b656e20616c7265616479206d696e74656400000000600082015250565b7f4552433732313a207472616e7366657220746f20746865207a65726f2061646460008201527f7265737300000000000000000000000000000000000000000000000000000000602082015250565b7f4552433732313a20617070726f766520746f2063616c6c657200000000000000600082015250565b7f4552433732313a206f70657261746f7220717565727920666f72206e6f6e657860008201527f697374656e7420746f6b656e0000000000000000000000000000000000000000602082015250565b7f3c2f746578743e3c2f7376673e00000000000000000000000000000000000000600082015250565b7f4552433732313a20617070726f76652063616c6c6572206973206e6f74206f7760008201527f6e6572206e6f7220617070726f76656420666f7220616c6c0000000000000000602082015250565b7f4552433732313a2062616c616e636520717565727920666f7220746865207a6560008201527f726f206164647265737300000000000000000000000000000000000000000000602082015250565b7f4552433732313a206f776e657220717565727920666f72206e6f6e657869737460008201527f656e7420746f6b656e0000000000000000000000000000000000000000000000602082015250565b7f45524337323155524953746f726167653a2055524920736574206f66206e6f6e60008201527f6578697374656e7420746f6b656e000000000000000000000000000000000000602082015250565b7f227d000000000000000000000000000000000000000000000000000000000000600082015250565b7f4552433732313a206d696e7420746f20746865207a65726f2061646472657373600082015250565b7f45524337323155524953746f726167653a2055524920717565727920666f722060008201527f6e6f6e6578697374656e7420746f6b656e000000000000000000000000000000602082015250565b7f4552433732313a20617070726f76656420717565727920666f72206e6f6e657860008201527f697374656e7420746f6b656e0000000000000000000000000000000000000000602082015250565b7f222c20226465736372697074696f6e223a20224120636f6c6c656374696f6e2060008201527f6f662070726f75646c79206d696e74656420576f72646c65204e4654732e222c60208201527f2022696d616765223a2022646174613a696d6167652f7376672b786d6c3b626160408201527f736536342c000000000000000000000000000000000000000000000000000000606082015250565b7f4552433732314d657461646174613a2055524920717565727920666f72206e6f60008201527f6e6578697374656e7420746f6b656e0000000000000000000000000000000000602082015250565b7f7b226e616d65223a202200000000000000000000000000000000000000000000600082015250565b7f4552433732313a20617070726f76616c20746f2063757272656e74206f776e6560008201527f7200000000000000000000000000000000000000000000000000000000000000602082015250565b7f646174613a6170706c69636174696f6e2f6a736f6e3b6261736536342c000000600082015250565b7f4552433732313a207472616e736665722063616c6c6572206973206e6f74206f60008201527f776e6572206e6f7220617070726f766564000000000000000000000000000000602082015250565b6132d081612aaa565b81146132db57600080fd5b50565b6132e781612abc565b81146132f257600080fd5b50565b6132fe81612ac8565b811461330957600080fd5b50565b61331581612b14565b811461332057600080fd5b5056fe416e204e465420772f20494420257320686173206265656e206d696e74656420746f2025734142434445464748494a4b4c4d4e4f505152535455565758595a6162636465666768696a6b6c6d6e6f707172737475767778797a303132333435363738392b2fa264697066735822122022ce1c67121b2e394cb72c37b6a6449ff1e247795f4e9465cf81e2b65b1348a164736f6c634300080100333c73766720786d6c6e733d27687474703a2f2f7777772e77332e6f72672f323030302f73766727207072657365727665417370656374526174696f3d27784d696e594d696e206d656574272076696577426f783d273020302033353020333530273e3c7374796c653e2e62617365207b2066696c6c3a2077686974653b20666f6e742d66616d696c793a2073657269663b20666f6e742d73697a653a20323470783b207d3c2f7374796c653e3c726563742077696474683d273130302527206865696768743d2731303025272066696c6c3d27626c61636b27202f3e3c7465787420783d273530252720793d273530252720636c6173733d27626173652720646f6d696e616e742d626173656c696e653d276d6964646c652720746578742d616e63686f723d276d6964646c65273e",
    "linkReferences": {},
    "deployedLinkReferences": {}
}