{
  "_format": "hh-sol-artifact-1",
  "contractName": "Maxima",
  "sourceName": "contracts/Maxima.sol",
  "abi": [
    {
      "inputs": [],
      "stateMutability": "nonpayable",
      "type": "constructor"
    },
    {
      "anonymous": false,
      "inputs": [
        {
          "indexed": true,
          "internalType": "address",
          "name": "owner",
          "type": "address"
        },
        {
          "indexed": true,
          "internalType": "address",
          "name": "approved",
          "type": "address"
        },
        {
          "indexed": true,
          "internalType": "uint256",
          "name": "tokenId",
          "type": "uint256"
        }
      ],
      "name": "Approval",
      "type": "event"
    },
    {
      "anonymous": false,
      "inputs": [
        {
          "indexed": true,
          "internalType": "address",
          "name": "owner",
          "type": "address"
        },
        {
          "indexed": true,
          "internalType": "address",
          "name": "operator",
          "type": "address"
        },
        {
          "indexed": false,
          "internalType": "bool",
          "name": "approved",
          "type": "bool"
        }
      ],
      "name": "ApprovalForAll",
      "type": "event"
    },
    {
      "anonymous": false,
      "inputs": [
        {
          "indexed": false,
          "internalType": "address",
          "name": "sender",
          "type": "address"
        },
        {
          "indexed": false,
          "internalType": "uint256",
          "name": "tokenId",
          "type": "uint256"
        }
      ],
      "name": "NewWordleNFTMinted",
      "type": "event"
    },
    {
      "anonymous": false,
      "inputs": [
        {
          "indexed": true,
          "internalType": "address",
          "name": "from",
          "type": "address"
        },
        {
          "indexed": true,
          "internalType": "address",
          "name": "to",
          "type": "address"
        },
        {
          "indexed": true,
          "internalType": "uint256",
          "name": "tokenId",
          "type": "uint256"
        }
      ],
      "name": "Transfer",
      "type": "event"
    },
    {
      "inputs": [
        {
          "internalType": "address",
          "name": "to",
          "type": "address"
        },
        {
          "internalType": "uint256",
          "name": "tokenId",
          "type": "uint256"
        }
      ],
      "name": "approve",
      "outputs": [],
      "stateMutability": "nonpayable",
      "type": "function"
    },
    {
      "inputs": [
        {
          "internalType": "address",
          "name": "owner",
          "type": "address"
        }
      ],
      "name": "balanceOf",
      "outputs": [
        {
          "internalType": "uint256",
          "name": "",
          "type": "uint256"
        }
      ],
      "stateMutability": "view",
      "type": "function"
    },
    {
      "inputs": [
        {
          "internalType": "uint256",
          "name": "tokenId",
          "type": "uint256"
        }
      ],
      "name": "getApproved",
      "outputs": [
        {
          "internalType": "address",
          "name": "",
          "type": "address"
        }
      ],
      "stateMutability": "view",
      "type": "function"
    },
    {
      "inputs": [
        {
          "internalType": "address",
          "name": "owner",
          "type": "address"
        },
        {
          "internalType": "address",
          "name": "operator",
          "type": "address"
        }
      ],
      "name": "isApprovedForAll",
      "outputs": [
        {
          "internalType": "bool",
          "name": "",
          "type": "bool"
        }
      ],
      "stateMutability": "view",
      "type": "function"
    },
    {
      "inputs": [
        {
          "internalType": "address payable",
          "name": "_to",
          "type": "address"
        },
        {
          "internalType": "string",
          "name": "metadataURI",
          "type": "string"
        }
      ],
      "name": "mintAndDonate",
      "outputs": [
        {
          "internalType": "uint256",
          "name": "",
          "type": "uint256"
        }
      ],
      "stateMutability": "payable",
      "type": "function"
    },
    {
      "inputs": [],
      "name": "name",
      "outputs": [
        {
          "internalType": "string",
          "name": "",
          "type": "string"
        }
      ],
      "stateMutability": "view",
      "type": "function"
    },
    {
      "inputs": [
        {
          "internalType": "uint256",
          "name": "tokenId",
          "type": "uint256"
        }
      ],
      "name": "ownerOf",
      "outputs": [
        {
          "internalType": "address",
          "name": "",
          "type": "address"
        }
      ],
      "stateMutability": "view",
      "type": "function"
    },
    {
      "inputs": [
        {
          "internalType": "address",
          "name": "from",
          "type": "address"
        },
        {
          "internalType": "address",
          "name": "to",
          "type": "address"
        },
        {
          "internalType": "uint256",
          "name": "tokenId",
          "type": "uint256"
        }
      ],
      "name": "safeTransferFrom",
      "outputs": [],
      "stateMutability": "nonpayable",
      "type": "function"
    },
    {
      "inputs": [
        {
          "internalType": "address",
          "name": "from",
          "type": "address"
        },
        {
          "internalType": "address",
          "name": "to",
          "type": "address"
        },
        {
          "internalType": "uint256",
          "name": "tokenId",
          "type": "uint256"
        },
        {
          "internalType": "bytes",
          "name": "_data",
          "type": "bytes"
        }
      ],
      "name": "safeTransferFrom",
      "outputs": [],
      "stateMutability": "nonpayable",
      "type": "function"
    },
    {
      "inputs": [
        {
          "internalType": "address",
          "name": "operator",
          "type": "address"
        },
        {
          "internalType": "bool",
          "name": "approved",
          "type": "bool"
        }
      ],
      "name": "setApprovalForAll",
      "outputs": [],
      "stateMutability": "nonpayable",
      "type": "function"
    },
    {
      "inputs": [
        {
          "internalType": "bytes4",
          "name": "interfaceId",
          "type": "bytes4"
        }
      ],
      "name": "supportsInterface",
      "outputs": [
        {
          "internalType": "bool",
          "name": "",
          "type": "bool"
        }
      ],
      "stateMutability": "view",
      "type": "function"
    },
    {
      "inputs": [],
      "name": "symbol",
      "outputs": [
        {
          "internalType": "string",
          "name": "",
          "type": "string"
        }
      ],
      "stateMutability": "view",
      "type": "function"
    },
    {
      "inputs": [
        {
          "internalType": "uint256",
          "name": "tokenId",
          "type": "uint256"
        }
      ],
      "name": "tokenURI",
      "outputs": [
        {
          "internalType": "string",
          "name": "",
          "type": "string"
        }
      ],
      "stateMutability": "view",
      "type": "function"
    },
    {
      "inputs": [
        {
          "internalType": "address",
          "name": "from",
          "type": "address"
        },
        {
          "internalType": "address",
          "name": "to",
          "type": "address"
        },
        {
          "internalType": "uint256",
          "name": "tokenId",
          "type": "uint256"
        }
      ],
      "name": "transferFrom",
      "outputs": [],
      "stateMutability": "nonpayable",
      "type": "function"
    }
  ],
  "bytecode": "0x60806040523480156200001157600080fd5b506040518060400160405280600981526020017f576f72646c654e465400000000000000000000000000000000000000000000008152506040518060400160405280600681526020017f4d4158494d410000000000000000000000000000000000000000000000000000815250816000908051906020019062000096929190620000b8565b508060019080519060200190620000af929190620000b8565b505050620001cd565b828054620000c69062000168565b90600052602060002090601f016020900481019282620000ea576000855562000136565b82601f106200010557805160ff191683800117855562000136565b8280016001018555821562000136579182015b828111156200013557825182559160200191906001019062000118565b5b50905062000145919062000149565b5090565b5b80821115620001645760008160009055506001016200014a565b5090565b600060028204905060018216806200018157607f821691505b602082108114156200019857620001976200019e565b5b50919050565b7f4e487b7100000000000000000000000000000000000000000000000000000000600052602260045260246000fd5b612e9a80620001dd6000396000f3fe6080604052600436106100dd5760003560e01c806370a082311161007f578063b75d3d0d11610059578063b75d3d0d146102d0578063b88d4fde14610300578063c87b56dd14610329578063e985e9c514610366576100dd565b806370a082311461023f57806395d89b411461027c578063a22cb465146102a7576100dd565b8063095ea7b3116100bb578063095ea7b31461018757806323b872dd146101b057806342842e0e146101d95780636352211e14610202576100dd565b806301ffc9a7146100e257806306fdde031461011f578063081812fc1461014a575b600080fd5b3480156100ee57600080fd5b5061010960048036038101906101049190611e46565b6103a3565b6040516101169190612292565b60405180910390f35b34801561012b57600080fd5b50610134610485565b60405161014191906122ad565b60405180910390f35b34801561015657600080fd5b50610171600480360381019061016c9190611e98565b610517565b60405161017e919061222b565b60405180910390f35b34801561019357600080fd5b506101ae60048036038101906101a99190611e0a565b61059c565b005b3480156101bc57600080fd5b506101d760048036038101906101d29190611d04565b6106b4565b005b3480156101e557600080fd5b5061020060048036038101906101fb9190611d04565b610714565b005b34801561020e57600080fd5b5061022960048036038101906102249190611e98565b610734565b604051610236919061222b565b60405180910390f35b34801561024b57600080fd5b5061026660048036038101906102619190611c4b565b6107e6565b604051610273919061250f565b60405180910390f35b34801561028857600080fd5b5061029161089e565b60405161029e91906122ad565b60405180910390f35b3480156102b357600080fd5b506102ce60048036038101906102c99190611dce565b610930565b005b6102ea60048036038101906102e59190611c74565b610946565b6040516102f7919061250f565b60405180910390f35b34801561030c57600080fd5b5061032760048036038101906103229190611d53565b610a41565b005b34801561033557600080fd5b50610350600480360381019061034b9190611e98565b610aa3565b60405161035d91906122ad565b60405180910390f35b34801561037257600080fd5b5061038d60048036038101906103889190611cc8565b610ab5565b60405161039a9190612292565b60405180910390f35b60007f80ac58cd000000000000000000000000000000000000000000000000000000007bffffffffffffffffffffffffffffffffffffffffffffffffffffffff1916827bffffffffffffffffffffffffffffffffffffffffffffffffffffffff1916148061046e57507f5b5e139f000000000000000000000000000000000000000000000000000000007bffffffffffffffffffffffffffffffffffffffffffffffffffffffff1916827bffffffffffffffffffffffffffffffffffffffffffffffffffffffff1916145b8061047e575061047d82610b49565b5b9050919050565b60606000805461049490612777565b80601f01602080910402602001604051908101604052809291908181526020018280546104c090612777565b801561050d5780601f106104e25761010080835404028352916020019161050d565b820191906000526020600020905b8154815290600101906020018083116104f057829003601f168201915b5050505050905090565b600061052282610bb3565b610561576040517f08c379a00000000000000000000000000000000000000000000000000000000081526004016105589061246f565b60405180910390fd5b6004600083815260200190815260200160002060009054906101000a900473ffffffffffffffffffffffffffffffffffffffff169050919050565b60006105a782610734565b90508073ffffffffffffffffffffffffffffffffffffffff168373ffffffffffffffffffffffffffffffffffffffff161415610618576040517f08c379a000000000000000000000000000000000000000000000000000000000815260040161060f906124af565b60405180910390fd5b8073ffffffffffffffffffffffffffffffffffffffff16610637610c1f565b73ffffffffffffffffffffffffffffffffffffffff161480610666575061066581610660610c1f565b610ab5565b5b6106a5576040517f08c379a000000000000000000000000000000000000000000000000000000000815260040161069c906123af565b60405180910390fd5b6106af8383610c27565b505050565b6106c56106bf610c1f565b82610ce0565b610704576040517f08c379a00000000000000000000000000000000000000000000000000000000081526004016106fb906124cf565b60405180910390fd5b61070f838383610dbe565b505050565b61072f83838360405180602001604052806000815250610a41565b505050565b6000806002600084815260200190815260200160002060009054906101000a900473ffffffffffffffffffffffffffffffffffffffff169050600073ffffffffffffffffffffffffffffffffffffffff168173ffffffffffffffffffffffffffffffffffffffff1614156107dd576040517f08c379a00000000000000000000000000000000000000000000000000000000081526004016107d4906123ef565b60405180910390fd5b80915050919050565b60008073ffffffffffffffffffffffffffffffffffffffff168273ffffffffffffffffffffffffffffffffffffffff161415610857576040517f08c379a000000000000000000000000000000000000000000000000000000000815260040161084e906123cf565b60405180910390fd5b600360008373ffffffffffffffffffffffffffffffffffffffff1673ffffffffffffffffffffffffffffffffffffffff168152602001908152602001600020549050919050565b6060600180546108ad90612777565b80601f01602080910402602001604051908101604052809291908181526020018280546108d990612777565b80156109265780601f106108fb57610100808354040283529160200191610926565b820191906000526020600020905b81548152906001019060200180831161090957829003601f168201915b5050505050905090565b61094261093b610c1f565b8383611025565b5050565b60006509184e72a000341015610991576040517f08c379a0000000000000000000000000000000000000000000000000000000008152600401610988906124ef565b60405180910390fd5b600061099d6007611192565b90506109a960076111a0565b6109b333826111b6565b6109bd81846111d4565b60008473ffffffffffffffffffffffffffffffffffffffff166108fc349081150290604051600060405180830381858888f19350505050905080610a36576040517f08c379a0000000000000000000000000000000000000000000000000000000008152600401610a2d9061232f565b60405180910390fd5b819250505092915050565b610a52610a4c610c1f565b83610ce0565b610a91576040517f08c379a0000000000000000000000000000000000000000000000000000000008152600401610a88906124cf565b60405180910390fd5b610a9d84848484611248565b50505050565b6060610aae826112a4565b9050919050565b6000600560008473ffffffffffffffffffffffffffffffffffffffff1673ffffffffffffffffffffffffffffffffffffffff16815260200190815260200160002060008373ffffffffffffffffffffffffffffffffffffffff1673ffffffffffffffffffffffffffffffffffffffff16815260200190815260200160002060009054906101000a900460ff16905092915050565b60007f01ffc9a7000000000000000000000000000000000000000000000000000000007bffffffffffffffffffffffffffffffffffffffffffffffffffffffff1916827bffffffffffffffffffffffffffffffffffffffffffffffffffffffff1916149050919050565b60008073ffffffffffffffffffffffffffffffffffffffff166002600084815260200190815260200160002060009054906101000a900473ffffffffffffffffffffffffffffffffffffffff1673ffffffffffffffffffffffffffffffffffffffff1614159050919050565b600033905090565b816004600083815260200190815260200160002060006101000a81548173ffffffffffffffffffffffffffffffffffffffff021916908373ffffffffffffffffffffffffffffffffffffffff160217905550808273ffffffffffffffffffffffffffffffffffffffff16610c9a83610734565b73ffffffffffffffffffffffffffffffffffffffff167f8c5be1e5ebec7d5bd14f71427d1e84f3dd0314c0f7b2291e5b200ac8c7c3b92560405160405180910390a45050565b6000610ceb82610bb3565b610d2a576040517f08c379a0000000000000000000000000000000000000000000000000000000008152600401610d219061238f565b60405180910390fd5b6000610d3583610734565b90508073ffffffffffffffffffffffffffffffffffffffff168473ffffffffffffffffffffffffffffffffffffffff161480610da457508373ffffffffffffffffffffffffffffffffffffffff16610d8c84610517565b73ffffffffffffffffffffffffffffffffffffffff16145b80610db55750610db48185610ab5565b5b91505092915050565b8273ffffffffffffffffffffffffffffffffffffffff16610dde82610734565b73ffffffffffffffffffffffffffffffffffffffff1614610e34576040517f08c379a0000000000000000000000000000000000000000000000000000000008152600401610e2b906122ef565b60405180910390fd5b600073ffffffffffffffffffffffffffffffffffffffff168273ffffffffffffffffffffffffffffffffffffffff161415610ea4576040517f08c379a0000000000000000000000000000000000000000000000000000000008152600401610e9b9061234f565b60405180910390fd5b610eaf8383836113f6565b610eba600082610c27565b6001600360008573ffffffffffffffffffffffffffffffffffffffff1673ffffffffffffffffffffffffffffffffffffffff1681526020019081526020016000206000828254610f0a919061267b565b925050819055506001600360008473ffffffffffffffffffffffffffffffffffffffff1673ffffffffffffffffffffffffffffffffffffffff1681526020019081526020016000206000828254610f6191906125f4565b92505081905550816002600083815260200190815260200160002060006101000a81548173ffffffffffffffffffffffffffffffffffffffff021916908373ffffffffffffffffffffffffffffffffffffffff160217905550808273ffffffffffffffffffffffffffffffffffffffff168473ffffffffffffffffffffffffffffffffffffffff167fddf252ad1be2c89b69c2b068fc378daa952ba7f163c4a11628f55a4df523b3ef60405160405180910390a46110208383836113fb565b505050565b8173ffffffffffffffffffffffffffffffffffffffff168373ffffffffffffffffffffffffffffffffffffffff161415611094576040517f08c379a000000000000000000000000000000000000000000000000000000000815260040161108b9061236f565b60405180910390fd5b80600560008573ffffffffffffffffffffffffffffffffffffffff1673ffffffffffffffffffffffffffffffffffffffff16815260200190815260200160002060008473ffffffffffffffffffffffffffffffffffffffff1673ffffffffffffffffffffffffffffffffffffffff16815260200190815260200160002060006101000a81548160ff0219169083151502179055508173ffffffffffffffffffffffffffffffffffffffff168373ffffffffffffffffffffffffffffffffffffffff167f17307eab39ab6107e8899845ad3d59bd9653f200f220920489ca2b5937696c31836040516111859190612292565b60405180910390a3505050565b600081600001549050919050565b6001816000016000828254019250508190555050565b6111d0828260405180602001604052806000815250611400565b5050565b6111dd82610bb3565b61121c576040517f08c379a00000000000000000000000000000000000000000000000000000000081526004016112139061240f565b60405180910390fd5b80600660008481526020019081526020016000209080519060200190611243929190611a5a565b505050565b611253848484610dbe565b61125f8484848461145b565b61129e576040517f08c379a0000000000000000000000000000000000000000000000000000000008152600401611295906122cf565b60405180910390fd5b50505050565b60606112af82610bb3565b6112ee576040517f08c379a00000000000000000000000000000000000000000000000000000000081526004016112e59061244f565b60405180910390fd5b600060066000848152602001908152602001600020805461130e90612777565b80601f016020809104026020016040519081016040528092919081815260200182805461133a90612777565b80156113875780601f1061135c57610100808354040283529160200191611387565b820191906000526020600020905b81548152906001019060200180831161136a57829003601f168201915b5050505050905060006113986115f2565b90506000815114156113ae5781925050506113f1565b6000825111156113e35780826040516020016113cb929190612207565b604051602081830303815290604052925050506113f1565b6113ec84611609565b925050505b919050565b505050565b505050565b61140a83836116b0565b611417600084848461145b565b611456576040517f08c379a000000000000000000000000000000000000000000000000000000000815260040161144d906122cf565b60405180910390fd5b505050565b600061147c8473ffffffffffffffffffffffffffffffffffffffff1661188a565b156115e5578373ffffffffffffffffffffffffffffffffffffffff1663150b7a026114a5610c1f565b8786866040518563ffffffff1660e01b81526004016114c79493929190612246565b602060405180830381600087803b1580156114e157600080fd5b505af192505050801561151257506040513d601f19601f8201168201806040525081019061150f9190611e6f565b60015b611595573d8060008114611542576040519150601f19603f3d011682016040523d82523d6000602084013e611547565b606091505b5060008151141561158d576040517f08c379a0000000000000000000000000000000000000000000000000000000008152600401611584906122cf565b60405180910390fd5b805181602001fd5b63150b7a0260e01b7bffffffffffffffffffffffffffffffffffffffffffffffffffffffff1916817bffffffffffffffffffffffffffffffffffffffffffffffffffffffff1916149150506115ea565b600190505b949350505050565b606060405180602001604052806000815250905090565b606061161482610bb3565b611653576040517f08c379a000000000000000000000000000000000000000000000000000000000815260040161164a9061248f565b60405180910390fd5b600061165d6115f2565b9050600081511161167d57604051806020016040528060008152506116a8565b80611687846118ad565b604051602001611698929190612207565b6040516020818303038152906040525b915050919050565b600073ffffffffffffffffffffffffffffffffffffffff168273ffffffffffffffffffffffffffffffffffffffff161415611720576040517f08c379a00000000000000000000000000000000000000000000000000000000081526004016117179061242f565b60405180910390fd5b61172981610bb3565b15611769576040517f08c379a00000000000000000000000000000000000000000000000000000000081526004016117609061230f565b60405180910390fd5b611775600083836113f6565b6001600360008473ffffffffffffffffffffffffffffffffffffffff1673ffffffffffffffffffffffffffffffffffffffff16815260200190815260200160002060008282546117c591906125f4565b92505081905550816002600083815260200190815260200160002060006101000a81548173ffffffffffffffffffffffffffffffffffffffff021916908373ffffffffffffffffffffffffffffffffffffffff160217905550808273ffffffffffffffffffffffffffffffffffffffff16600073ffffffffffffffffffffffffffffffffffffffff167fddf252ad1be2c89b69c2b068fc378daa952ba7f163c4a11628f55a4df523b3ef60405160405180910390a4611886600083836113fb565b5050565b6000808273ffffffffffffffffffffffffffffffffffffffff163b119050919050565b606060008214156118f5576040518060400160405280600181526020017f30000000000000000000000000000000000000000000000000000000000000008152509050611a55565b600082905060005b60008214611927578080611910906127da565b915050600a82611920919061264a565b91506118fd565b60008167ffffffffffffffff811115611969577f4e487b7100000000000000000000000000000000000000000000000000000000600052604160045260246000fd5b6040519080825280601f01601f19166020018201604052801561199b5781602001600182028036833780820191505090505b5090505b60008514611a4e576001826119b4919061267b565b9150600a856119c39190612823565b60306119cf91906125f4565b60f81b818381518110611a0b577f4e487b7100000000000000000000000000000000000000000000000000000000600052603260045260246000fd5b60200101907effffffffffffffffffffffffffffffffffffffffffffffffffffffffffffff1916908160001a905350600a85611a47919061264a565b945061199f565b8093505050505b919050565b828054611a6690612777565b90600052602060002090601f016020900481019282611a885760008555611acf565b82601f10611aa157805160ff1916838001178555611acf565b82800160010185558215611acf579182015b82811115611ace578251825591602001919060010190611ab3565b5b509050611adc9190611ae0565b5090565b5b80821115611af9576000816000905550600101611ae1565b5090565b6000611b10611b0b8461254f565b61252a565b905082815260208101848484011115611b2857600080fd5b611b33848285612735565b509392505050565b6000611b4e611b4984612580565b61252a565b905082815260208101848484011115611b6657600080fd5b611b71848285612735565b509392505050565b600081359050611b8881612df1565b92915050565b600081359050611b9d81612e08565b92915050565b600081359050611bb281612e1f565b92915050565b600081359050611bc781612e36565b92915050565b600081519050611bdc81612e36565b92915050565b600082601f830112611bf357600080fd5b8135611c03848260208601611afd565b91505092915050565b600082601f830112611c1d57600080fd5b8135611c2d848260208601611b3b565b91505092915050565b600081359050611c4581612e4d565b92915050565b600060208284031215611c5d57600080fd5b6000611c6b84828501611b79565b91505092915050565b60008060408385031215611c8757600080fd5b6000611c9585828601611b8e565b925050602083013567ffffffffffffffff811115611cb257600080fd5b611cbe85828601611c0c565b9150509250929050565b60008060408385031215611cdb57600080fd5b6000611ce985828601611b79565b9250506020611cfa85828601611b79565b9150509250929050565b600080600060608486031215611d1957600080fd5b6000611d2786828701611b79565b9350506020611d3886828701611b79565b9250506040611d4986828701611c36565b9150509250925092565b60008060008060808587031215611d6957600080fd5b6000611d7787828801611b79565b9450506020611d8887828801611b79565b9350506040611d9987828801611c36565b925050606085013567ffffffffffffffff811115611db657600080fd5b611dc287828801611be2565b91505092959194509250565b60008060408385031215611de157600080fd5b6000611def85828601611b79565b9250506020611e0085828601611ba3565b9150509250929050565b60008060408385031215611e1d57600080fd5b6000611e2b85828601611b79565b9250506020611e3c85828601611c36565b9150509250929050565b600060208284031215611e5857600080fd5b6000611e6684828501611bb8565b91505092915050565b600060208284031215611e8157600080fd5b6000611e8f84828501611bcd565b91505092915050565b600060208284031215611eaa57600080fd5b6000611eb884828501611c36565b91505092915050565b611eca816126af565b82525050565b611ed9816126d3565b82525050565b6000611eea826125b1565b611ef481856125c7565b9350611f04818560208601612744565b611f0d81612910565b840191505092915050565b6000611f23826125bc565b611f2d81856125d8565b9350611f3d818560208601612744565b611f4681612910565b840191505092915050565b6000611f5c826125bc565b611f6681856125e9565b9350611f76818560208601612744565b80840191505092915050565b6000611f8f6032836125d8565b9150611f9a82612921565b604082019050919050565b6000611fb26025836125d8565b9150611fbd82612970565b604082019050919050565b6000611fd5601c836125d8565b9150611fe0826129bf565b602082019050919050565b6000611ff86014836125d8565b9150612003826129e8565b602082019050919050565b600061201b6024836125d8565b915061202682612a11565b604082019050919050565b600061203e6019836125d8565b915061204982612a60565b602082019050919050565b6000612061602c836125d8565b915061206c82612a89565b604082019050919050565b60006120846038836125d8565b915061208f82612ad8565b604082019050919050565b60006120a7602a836125d8565b91506120b282612b27565b604082019050919050565b60006120ca6029836125d8565b91506120d582612b76565b604082019050919050565b60006120ed602e836125d8565b91506120f882612bc5565b604082019050919050565b60006121106020836125d8565b915061211b82612c14565b602082019050919050565b60006121336031836125d8565b915061213e82612c3d565b604082019050919050565b6000612156602c836125d8565b915061216182612c8c565b604082019050919050565b6000612179602f836125d8565b915061218482612cdb565b604082019050919050565b600061219c6021836125d8565b91506121a782612d2a565b604082019050919050565b60006121bf6031836125d8565b91506121ca82612d79565b604082019050919050565b60006121e26013836125d8565b91506121ed82612dc8565b602082019050919050565b6122018161272b565b82525050565b60006122138285611f51565b915061221f8284611f51565b91508190509392505050565b60006020820190506122406000830184611ec1565b92915050565b600060808201905061225b6000830187611ec1565b6122686020830186611ec1565b61227560408301856121f8565b81810360608301526122878184611edf565b905095945050505050565b60006020820190506122a76000830184611ed0565b92915050565b600060208201905081810360008301526122c78184611f18565b905092915050565b600060208201905081810360008301526122e881611f82565b9050919050565b6000602082019050818103600083015261230881611fa5565b9050919050565b6000602082019050818103600083015261232881611fc8565b9050919050565b6000602082019050818103600083015261234881611feb565b9050919050565b600060208201905081810360008301526123688161200e565b9050919050565b6000602082019050818103600083015261238881612031565b9050919050565b600060208201905081810360008301526123a881612054565b9050919050565b600060208201905081810360008301526123c881612077565b9050919050565b600060208201905081810360008301526123e88161209a565b9050919050565b60006020820190508181036000830152612408816120bd565b9050919050565b60006020820190508181036000830152612428816120e0565b9050919050565b6000602082019050818103600083015261244881612103565b9050919050565b6000602082019050818103600083015261246881612126565b9050919050565b6000602082019050818103600083015261248881612149565b9050919050565b600060208201905081810360008301526124a88161216c565b9050919050565b600060208201905081810360008301526124c88161218f565b9050919050565b600060208201905081810360008301526124e8816121b2565b9050919050565b60006020820190508181036000830152612508816121d5565b9050919050565b600060208201905061252460008301846121f8565b92915050565b6000612534612545565b905061254082826127a9565b919050565b6000604051905090565b600067ffffffffffffffff82111561256a576125696128e1565b5b61257382612910565b9050602081019050919050565b600067ffffffffffffffff82111561259b5761259a6128e1565b5b6125a482612910565b9050602081019050919050565b600081519050919050565b600081519050919050565b600082825260208201905092915050565b600082825260208201905092915050565b600081905092915050565b60006125ff8261272b565b915061260a8361272b565b9250827fffffffffffffffffffffffffffffffffffffffffffffffffffffffffffffffff0382111561263f5761263e612854565b5b828201905092915050565b60006126558261272b565b91506126608361272b565b9250826126705761266f612883565b5b828204905092915050565b60006126868261272b565b91506126918361272b565b9250828210156126a4576126a3612854565b5b828203905092915050565b60006126ba8261270b565b9050919050565b60006126cc8261270b565b9050919050565b60008115159050919050565b60007fffffffff0000000000000000000000000000000000000000000000000000000082169050919050565b600073ffffffffffffffffffffffffffffffffffffffff82169050919050565b6000819050919050565b82818337600083830152505050565b60005b83811015612762578082015181840152602081019050612747565b83811115612771576000848401525b50505050565b6000600282049050600182168061278f57607f821691505b602082108114156127a3576127a26128b2565b5b50919050565b6127b282612910565b810181811067ffffffffffffffff821117156127d1576127d06128e1565b5b80604052505050565b60006127e58261272b565b91507fffffffffffffffffffffffffffffffffffffffffffffffffffffffffffffffff82141561281857612817612854565b5b600182019050919050565b600061282e8261272b565b91506128398361272b565b92508261284957612848612883565b5b828206905092915050565b7f4e487b7100000000000000000000000000000000000000000000000000000000600052601160045260246000fd5b7f4e487b7100000000000000000000000000000000000000000000000000000000600052601260045260246000fd5b7f4e487b7100000000000000000000000000000000000000000000000000000000600052602260045260246000fd5b7f4e487b7100000000000000000000000000000000000000000000000000000000600052604160045260246000fd5b6000601f19601f8301169050919050565b7f4552433732313a207472616e7366657220746f206e6f6e20455243373231526560008201527f63656976657220696d706c656d656e7465720000000000000000000000000000602082015250565b7f4552433732313a207472616e736665722066726f6d20696e636f72726563742060008201527f6f776e6572000000000000000000000000000000000000000000000000000000602082015250565b7f4552433732313a20746f6b656e20616c7265616479206d696e74656400000000600082015250565b7f4661696c656420746f2073656e64204574686572000000000000000000000000600082015250565b7f4552433732313a207472616e7366657220746f20746865207a65726f2061646460008201527f7265737300000000000000000000000000000000000000000000000000000000602082015250565b7f4552433732313a20617070726f766520746f2063616c6c657200000000000000600082015250565b7f4552433732313a206f70657261746f7220717565727920666f72206e6f6e657860008201527f697374656e7420746f6b656e0000000000000000000000000000000000000000602082015250565b7f4552433732313a20617070726f76652063616c6c6572206973206e6f74206f7760008201527f6e6572206e6f7220617070726f76656420666f7220616c6c0000000000000000602082015250565b7f4552433732313a2062616c616e636520717565727920666f7220746865207a6560008201527f726f206164647265737300000000000000000000000000000000000000000000602082015250565b7f4552433732313a206f776e657220717565727920666f72206e6f6e657869737460008201527f656e7420746f6b656e0000000000000000000000000000000000000000000000602082015250565b7f45524337323155524953746f726167653a2055524920736574206f66206e6f6e60008201527f6578697374656e7420746f6b656e000000000000000000000000000000000000602082015250565b7f4552433732313a206d696e7420746f20746865207a65726f2061646472657373600082015250565b7f45524337323155524953746f726167653a2055524920717565727920666f722060008201527f6e6f6e6578697374656e7420746f6b656e000000000000000000000000000000602082015250565b7f4552433732313a20617070726f76656420717565727920666f72206e6f6e657860008201527f697374656e7420746f6b656e0000000000000000000000000000000000000000602082015250565b7f4552433732314d657461646174613a2055524920717565727920666f72206e6f60008201527f6e6578697374656e7420746f6b656e0000000000000000000000000000000000602082015250565b7f4552433732313a20617070726f76616c20746f2063757272656e74206f776e6560008201527f7200000000000000000000000000000000000000000000000000000000000000602082015250565b7f4552433732313a207472616e736665722063616c6c6572206973206e6f74206f60008201527f776e6572206e6f7220617070726f766564000000000000000000000000000000602082015250565b7f4265206e69636520616e6420646f6e6174652100000000000000000000000000600082015250565b612dfa816126af565b8114612e0557600080fd5b50565b612e11816126c1565b8114612e1c57600080fd5b50565b612e28816126d3565b8114612e3357600080fd5b50565b612e3f816126df565b8114612e4a57600080fd5b50565b612e568161272b565b8114612e6157600080fd5b5056fea26469706673582212201b5ec53d6584dfcd81888dc4cdae625c38b28e65ce44954ad78a5bbec45b8e2d64736f6c63430008010033",
  "linkReferences": {},
  "deployedLinkReferences": {}
}